:06000000000080311A2807
:10000800803120007F08EA009C31BA248031911C9D
:1000180017282200AC0A0319AD0A0319AE0A0319FE
:10002800AF0A200091106A08FF0009009431EE2CF5
:101208009D31612D9D31622D9D31632D9D31772D4D
:101218009D31772D9D31772D9D31772D9D31772DFE
:101228009D31772D9D31772D9D31772D9D31772DEE
:101238009D31772D9D31772D9D31772D9D31772DDE
:101248009D31772D9D31772D9D31772D9D31772DCE
:101258009D31772D9D31772D9D31772D9D31772DBE
:101268009D31772D9D31772D9D31772D9D31772DAE
:101278009D31772D9D31772D9D31772D9D31772D9E
:101288009D31772D9D31772D9D31772D9D31772D8E
:101298009D31772D9D31772D9D31772D9D31772D7E
:1012A8009D31772D9D31772D9D31772D9D31772D6E
:1012B8009D31772D9D31772D9D31772D9D31772D5E
:1012C8009D31772D9D31772D9D31772D9D31772D4E
:1012D8009D31772D9D31772D9D31772D9D31772D3E
:1012E8009D31772D9D31772D9D31772D9D31772D2E
:1012F8009D31772D9D31772D9D31772D9D31772D1E
:101308009D31772D9D31772D9D31772D9D31772D0D
:101318009D31772D9D31772D9D31772D9D31772DFD
:101328009D31772D9D31772D9D31772D9D31772DED
:101338009D31772D9D31772D9D31772D9D31772DDD
:101348009D31772D9D31772D9D31772D9D31772DCD
:101358009D31772D9D31772D9D31772D9D31772DBD
:101368009D31772D9D31772D9D31772D9D31772DAD
:101378009D31772D9D31772D9D31772D9D31772D9D
:101388009D31772D9D31772D9D31772D9D31772D8D
:101398009D31772D9D31772D9D31772D9D31772D7D
:1013A8009D31772D9D31772D9D31772D9D31772D6D
:1013B8009D31772D9D31772D9D31772D9D31772D5D
:1013C8009D31772D9D31772D9D315E2D9D31602D7D
:0413D8009D315F2DB7
:101400009831DB289831DC289831CA289831DC28BB
:101410009831CA289831CB289831D0289831EB28B8
:101420009831D2289831D1289831DD289831E02898
:041430009831CA28FD
:10144C00F8012130FA00C830F9007808F0001430A7
:10145C00F101F200F30187238A317008F907710852
:10146C00FA3D760886007708870041310108F000C4
:10147C006430F101F200F30187238A317908860088
:10148C007A0887004E317008C03F7108C13F76085A
:10149C008600770887000108F0006430F101F20043
:1014AC00F30187238A31790886007A0887004C314A
:1014BC007008C03F7108C13F760886007708870026
:1014CC0042310108F0006430F101F200F30187238E
:1014DC008A31790886007A08870050317008C03F3D
:1014EC007108C13F790886007A0887004E31790867
:1014FC0084007A0885000231403F803F413F813FA4
:10150C00790886007A0887004C31790884007A08BB
:10151C008500403F803F413F813F790886007A0833
:10152C0087005031790884007A0885000431403FE7
:10153C00803F413F813F790886007A08870052310D
:10154C000030C03FC13F760886007708870001084D
:10155C00F000760886007708870042310108F10018
:10156C007808F20076088600770887004131010878
:10157C008E31A4268A311230F80A7802031808003A
:10158C00272A2130D300C830D2007D08F1007C0816
:10159C00F0001430F200F30187238A317008D2076F
:1015AC007108D33D7808860079088700413101081D
:1015BC00F0006430F101F200F30187238A31520804
:1015CC0086005308870042317008C03F7108C13F44
:1015DC0078088600790887000108F0006430F10172
:1015EC00F200F30187238A315208860053088700E2
:1015FC007008C03F7108C13F7808860079088700E1
:10160C0042310108F0006430F101F200F30187234C
:10161C008A31520886005308870044317008C03F55
:10162C007108C13F7A08013ED00000307B3DD100EB
:10163C00520886005308870052315008C03F5108A9
:10164C00C13F7B08F1007A08F0005208860053086D
:10165C0087004E3152088400530885000231403F08
:10166C000002F2000131413F003BF3009C238A3120
:10167C00520886005308870048317008C03F710833
:10168C00C13F7B08F1007A08F0005208860053082D
:10169C0087004C315208840053088500403F0002FB
:1016AC00F2000131413F003BF3009C238A31520888
:1016BC0086005308870046317008C03F7108C13F4F
:1016CC007B08F1007A08F000520886005308870066
:1016DC00503152088400530885000431403F000209
:1016EC00F2000131413F003BF3009C238A31520848
:1016FC008600530887004A317008C03F7108C13F0B
:10170C000800F401F501701C8F2B7208F4077308A4
:10171C00F53DF235F30DF136F00C71087004031D34
:10172C00892B7508F1007408F0000800F501F11F11
:10173C00A62BF009F109F00A0319F10AF501F50AD3
:10174C00F31FAF2BF209F309F20A0319F30A013064
:10175C00F506F601F701710870040319CF2BF4019B
:10176C00F40AF11BBC2BF035F10DB62BF635F70D49
:10177C0071087302031DC42B70087202031CCB2B5F
:10178C007008F2027108F33B7614F136F00CF40B8E
:10179C00BC2B75080319D72BF609F709F60A0319A0
:1017AC00F70A7708F1007608F00008004830DE2BC5
:1017BC00D300B030F600F7015308F8000830F901F7
:1017CC00FA00FB010F268B3121005308860087019C
:1017DC00413FCF0053088600423FD100530886009A
:1017EC00433FD00053088600443FD2004F08633A71
:1017FC00031D242C5308063E86005308053E840026
:10180C0085010008B9000108B80053088600473F5D
:10181C00BA002200D030C1012000D400D501210033
:10182C0039082000D700210038082000D6002100FC
:10183C003A082000D800D901342608004F086E3A27
:10184C00031D502C530886008701473FC50022001A
:10185C00C101210045080319402C03302200C100AE
:10186C0021005008F0005208F1004508F200510820
:10187C00A4260800D0302000D400D501D601D70111
:10188C00D801D9013426D030F6000030F7018A3166
:10189C00262208004F08723A031D782C5308860044
:1018AC008701473FC8004808031DC803480848077C
:1018BC004807A13E8600013087000108B2004808A5
:1018CC0048074807A03E86000108B30048084807AF
:1018DC004807A23E86000108B400B501B6014808CD
:1018EC00B70008004F08703A031DA12C530886005E
:1018FC008701423F2200C100210053088600433F6C
:10190C002200C300210053088600443F2200E70058
:10191C00210053088600453F2200C00067080319C8
:10192C009B2C21306702031C9E2C2030E7009F2C3F
:10193C00E70AF52608004F08533A031DBB2C22007A
:10194C0041082100B200220043082100B30022000C
:10195C0067082100B400220040082100B5002200D5
:10196C0042082100B600B70108004F08503A031D89
:10197C00012D530886008701423FE700530886007B
:10198C00433FE60053088600443FE8005308063EF8
:10199C0086005308053E840085010008EA00010812
:1019AC00E90022003E082100EB0053088600473F67
:1019BC00C600203046020318C6013030F600233032
:1019CC00F7004608F0000630F101F200F3018B310C
:1019DC0087238B3170082000DB007108DC005B086A
:1019EC00F6075C08F73DE630F8000630F901FA001E
:1019FC00FB010F2608004F08523A031D3A2D5308DD
:101A0C0086008701473FC700203047020318C701F3
:101A1C004708F0000630F101F200F3018B31872307
:101A2C008B3130302000DB002330DC0070085B078A
:101A3C00860071085C3D8700C93084000030850049
:101A4C000630FF0016001A00FF0B282D21004A0853
:101A5C00B2004908B3004B08B4004D08B5004C085F
:101A6C00B6004E08B70008004F08573A031D5E2D0C
:101A7C005308023E860087010108BE3A031D080088
:101A8C005308033E86000108EF3A031D0800530873
:101A9C00043E86000108CA3A031D08005308053E9F
:101AAC0086000108FE3A031D0800E301E30A080062
:101ABC004F086C3A031D692D530886008701423F7D
:101ACC002200BE0008004F08443A031DDC2D5308C9
:101ADC0086008701423FBB005308043E8600010884
:101AEC002000DB00DC0121005308033E86000108C6
:101AFC002000DD00DE01DE00DD015B085D0421005D
:101B0C00BD0020005C085E042100BE00BF01C001C6
:101B1C0053088600453FBC0053088600463F220010
:101B2C00C400210053088600473F2200E800E80A61
:101B3C000319A42D21306802031CA62D2030E800C7
:101B4C0021003B080319D32D3E082200B3002100CD
:101B5C003D082200B20021004008F3003F08F200CB
:101B6C003E08F1003D08F0000A30F400F501F601E2
:101B7C00F7017F268B3173082200AB007208AA0094
:101B8C007108A9007008A8002C08A8072D08A93D09
:101B9C002E08AA3D2F08AB3DD62D2200B201B30171
:101BAC002100BC08031D0800E92608004F08763AFE
:101BBC00031DE52D3230B3003530B40008004F085A
:101BCC00213A031D08000530F0008030F100672633
:101BDC008B3171082100C2007008C1000630F00082
:101BEC008030F100672671082100C4007008C30022
:101BFC005530B100AA30B200220045082100B300D4
:101C0C004208B4004108B5004408B6004308B700C8
:101C1C00080079082000D3007808D2007708D1009A
:101C2C007608D0000130FA020030FB3B7A0A031927
:101C3C007B0A031908005208840053088500000829
:101C4C00FC0050088600510887007C088100D20AED
:101C5C000319D30AD00A0319D10A182E5908803A4D
:101C6C00FF0080307F02031D3D2E01305802031C03
:101C7C00512E20005508F9005408F8005708FB00B5
:101C8C005608FA005808FF3EFC00FF30593DFD0095
:101C9C008A31C72208002000DA015508F9005408DF
:101CAC00F8005708FB005608FA005A08FC00FD0122
:101CBC008A31C7228B311230DA0A5A020318080013
:101CCC00532E700823009100920115178B131514D5
:101CDC00000000008B1723001308F000F10114081A
:101CEC00F200F301F300F2017208F0047308F1043E
:101CFC000800F801F901FA01FB01701C8D2E740823
:101D0C00F8077508F93D7608FA3D7708FB3DF43580
:101D1C00F50DF60DF70DF336F20CF10CF00C730813
:101D2C00720471047004031D832E7B08F3007A087F
:101D3C00F2007908F1007808F0000800F30072084E
:101D4C00FF3A031DD12EF401F501740874077407D2
:101D5C00A13E860001308700730881007408740767
:101D6C007407A03E8600700881007408740774071D
:101D7C00A23E860071088100F40A0319F50A750861
:101D8C00803AFF0080307F02031DCE2E1230740289
:101D9C0003180800AB2E720872077207A13E86006A
:101DAC000130870073088100720872077207A03E29
:101DBC00860070088100720872077207A23E8600C6
:101DCC0071088100080022004B30C101CC01CB010D
:101DDC00CD01F6000130F7008A31262208004308B5
:101DEC00C2002F08A7002E08A6002D08A5002C085D
:101DFC00A4000800002F8F318207032F8B31DC2BBE
:101E0C0022003D08023A031D0D2F9B31632BBD01AF
:101E1C002100E008031D272F20006C0A86000830E3
:101E2C00870181004030E300E4016C08023E86002B
:101E3C006308C03F6408C13F6C0886008C30810089
:101E4C000800E00108009F313C2F9F313F2F9F314C
:101E5C00512F9F31702F9F31702F9F31702F9F31D9
:101E6C00702F9F31702F9F313E2F9F31492F9F3103
:101E7C005B2F6400800101310130FE020030FF3B1A
:101E8C007F087E0403190034402FB0302200C600B6
:0E1E9C00C7010830C900CA018130C800080023
:10220E00D2012130D400C830D30052082100A000E2
:10221E001430A101A200A3019924913120082200BB
:10222E00D307210021082200D43D5308860054080C
:10223E0087005231160001040319CE295308860077
:10224E00540887005231FF3081074131813D7F3183
:10225E0053088600540887005231160001040319F2
:10226E0069295308860054088700483153088400B2
:10227E00540885000E31403F80070131413F803DBB
:10228E003F315308860054088700463153088400B6
:10229E00540885000C31403F80070131413F803D9D
:1022AE003F3153088600540887004A315308840092
:1022BE00540885001031403F80070131413F803D79
:1022CE003F31922953088600540887004231530843
:1022DE008400540885000E31403F803F413F813FCE
:1022EE00530886005408870053088400540885005C
:1022FE000C31403F803F413F813F530886005408D8
:10230E008700443153088400540885001031403F43
:10231E00803F413F813F64302100A000A101220097
:10232E0053088600540887004C31403F2100A2001C
:10233E00413FA300AE2491312008A8006430A000D4
:10234E00A101220053088600540887005031403FF7
:10235E002100A200413FA300AE2491312008A90024
:10236E00220052082100AA006430A000A101220020
:10237E0053088600540887004E31403F2100A200CA
:10238E00413FA300AE24913120083B26913122001B
:10239E001230D20A520203180800082922002F0810
:1023AE00E2002E08E1002D08E0002C08DF002008D6
:1023BE005F02DB002108603BDC002208613BDD0090
:1023CE002308623BDE005E08803AFF0080307F0209
:1023DE00031DFB2900305D02031DFB2900305C024A
:1023EE00031DFB2901305B02031C2C2A0A30A007B7
:1023FE0001300318A1070318A2070318A30707212A
:10240E009131722591312200C508031D262AC1087B
:10241E00031D2C2A00306202031D1F2A00306102A8
:10242E00031D1F2A01306002031D1F2AF5305F02B3
:10243E00031C2C2A0230C1002E2791312C2A410870
:10244E00023A031D2C2A392791313308320403191D
:10245E00592A28085F02DB002908603BDC002A08A5
:10246E00613BDD002B08623BDE005E08803AFF0018
:10247E0080307F02031D4D2A00305D02031D4D2A60
:10248E0000305C02031D4D2A01305B02031C592AE9
:10249E00B201B301C101C10A4408C3006808E700D4
:1024AE002E27913141080319080024085F02DB0032
:1024BE002508603BDC002608613BDD002708623BF7
:1024CE00DE005E08803AFF0080307F02031D792A0D
:1024DE0000305D02031D792A00305C02031D792A4B
:1024EE0001305B02031C080042082100A0000630E8
:1024FE00A101A200A3019924913130302200DB000A
:10250E002330DC002100200822005B07860021001A
:10251E00210822005C3D8700403FCB00413FCC00AC
:10252E00423FCD0042082100A0000630A101A200CA
:10253E00A3019924913133302200DB002330DC00DB
:10254E002100200822005B078600210021082200BE
:10255E005C3D8700403FB400413FB500420821007A
:10256E00A0000630A101A200A301992491313530BB
:10257E002200DB002330DC002100200822005B0754
:10258E0086002100210822005C3D87000108BE0064
:10259E0035083404031DDB2ACC08031DDB2ACB08C7
:1025AE000319CD080319E82A4B30D4000130D500A9
:1025BE003508D7003408D6003E08D800D901432785
:1025CE0091312200C20A42086706031DF82A430809
:1025DE00C200C00BF42AC101F82A4008FF3A0319C1
:1025EE00C00135082100A100220034082100A000FE
:1025FE000A30A200A301992420082200A40721007A
:10260E0021082200A53D0030A63DA73D080022006E
:10261E00D2012130D400C830D30052082100A000CE
:10262E001430A101A200A3019924913120082200A7
:10263E00D307210021082200D43D21002E08860058
:10264E002F08870041310108A0006430A101A200CB
:10265E00A301992491312200530886005408870063
:10266E004E3121002008C03F2108C13F2E088600B0
:10267E002F0887000108A0006430A101A200A30169
:10268E0099249131220053088600540887004C315A
:10269E0021002008C03F2108C13F2E0886002F08C8
:1026AE00870042310108A0006430A101A200A301FD
:1026BE009924913122005308860054088700503126
:1026CE0021002008C03F2108C13F22005308860088
:1026DE00540887004E315308840054088500023197
:1026EE00403F803F413F813F53088600540887009A
:1026FE004C315308840054088500403F803F413FD1
:10270E00813F5308860054088700503153088400D7
:10271E00540885000431403F803F413F813F5308BC
:10272E0086005408870052310030C03FC13F21005F
:10273E002E0886002F0887000108A8002E088600A4
:10274E002F08870042310108A900220052082100FB
:10275E00AA002E0886002F088700413101083B266B
:10276E00913122001230D20A520203180800102BA7
:10277E0021302200D300C830D20021002D08A10044
:10278E002C08A0001430A200A30199249131200836
:10279E002200D207210021082200D33D2100280863
:1027AE0086002908870041310108A0006430A1018C
:1027BE00A200A301992491312200520886005308E9
:1027CE008700423121002008C03F2108C13F280860
:1027DE008600290887000108A0006430A101A2002C
:1027EE00A3019924913122005208860053088700D4
:1027FE0021002008C03F2108C13F28088600290873
:10280E00870042310108A0006430A101A200A3019B
:10281E0099249131220052088600530887004431D2
:10282E0021002008C03F2108C13F2A08013EAE000A
:10283E0000302B3DAF00220052088600530887005F
:10284E00523121002E08C03F2F08C13F2B08A10096
:10285E002A08A000220052088600530887004E3135
:10286E0052088400530885000231403F00022100C7
:10287E00A2000131413F003BA300AE249131220062
:10288E005208860053088700483121002008C03FB7
:10289E002108C13F2B08A1002A08A00022005208DF
:1028AE008600530887004C31520884005308850077
:1028BE00403F00022100A2000131413F003BA30036
:1028CE00AE2491312200520886005308870046310B
:1028DE0021002008C03F2108C13F2B08A1002A0873
:1028EE00A00022005208860053088700503152087B
:1028FE008400530885000431403F00022100A200ED
:10290E000131413F003BA300AE2491312200520819
:10291E008600530887004A3121002008C03F210855
:10292E00C13F0800A401A501201CA12C2208A40768
:10293E002308A53DA235A30DA136A00C2108200425
:10294E00031D9B2C2508A1002408A0000800A5014A
:10295E00A11FB82CA009A109A00A0319A10AA5015B
:10296E00A50AA31FC12CA209A309A20A0319A30A2F
:10297E000130A506A601A701210820040319E12CA8
:10298E00A401A40AA11BCE2CA035A10DC82CA635DE
:10299E00A70D21082302031DD62C20082202031C9A
:1029AE00DD2C2008A2022108A33B2614A136A00C80
:1029BE00A40BCE2C25080319E92CA609A709A60AF3
:1029CE000319A70A2708A1002608A0000800C8308E
:1029DE008400213085002830FE000230FF008F3148
:1029EE003F279131EB01EC01ED01EE01EF01D43007
:1029FE008400003085001830FE000030FF008F315B
:102A0E003F27913120308400013085003230FE00A6
:102A1E000030FF008F313F279131A030840001300C
:102A2E0085004830FE000030FF008F313F27913186
:102A3E0022002030E7002030E8002000262D7F25E0
:102A4E0091312226913130302100A0002330A10097
:102A5E00C030A201A301A400A501DC2591313030C4
:102A6E00A0002330A1008030A2009F30A300603070
:102A7E00A400A5018426913182269131FF302200D7
:102A8E00E6001030E4009430E300E30B4C2DE40B31
:102A9E004C2D00002200660E0F39E5002100A80023
:102AAE00220065082100A900FF30AA002200650857
:102ABE003B269131722591312200E603031D482DEC
:102ACE002E2791313927913172259131D5219131AE
:102ADE00A82691316D2D36302100A000A030A10125
:102AEE00F5259131C730A300A30B7B2D7E2D080059
:102AFE0023008C018E0121008C018E019801FC3087
:102B0E009900903027009B0020001C08FC390138EA
:102B1E009C001C08873958389C00F2309B001C150D
:102B2E00210091140B17A7012708F83E84009F304F
:102B3E000318013E85000008A500250E0F39D0258B
:102B4E009131A3002508D0259131A4002735A60088
:102B5E002308A100A2012635D83E86000130870049
:102B6E002108C03F2208C13F2408A100A20126353A
:102B7E00DA3E8600013087002108C03F2208C13F9F
:102B8E00A70A04302702031C9B2DCE2D9B2D8B17DD
:102B9E00882FA0000F30A0050A302002200803184D
:102BAE00DA2D303E0800373E08002108A800200824
:102BBE00A7000130A4020030A53B240A0319250A00
:102BCE00031908002208A600270886002808870097
:102BDE0026088100A70A0319A80AE02DA2008B136C
:102BEE0001302100A0020030A13B200A0319210A66
:102BFE000319202E220886000130870001082000CC
:102C0E00EE0021000830A20A2000ED000E15EE0D98
:102C1E000318162E0E110000000000001B2E0000DF
:102C2E00000000000E11000000000030ED0B0D2E14
:102C3E00F72D8B170800BA08031D08003D008E0102
:102C4E009201163091009F3097007B309200210048
:102C5E0012150B178B173D008E19372E8E15322E2F
:102C6E0001302200BA0008002100AB002A08FF3A0A
:102C7E00031D6A2EAC01AD0121002C082C072C0778
:102C8E00A13E8600013087002B0881002C082C07FE
:102C9E002C07A03E8600280881002C082C072C0744
:102CAE00A23E860029088100AC0A0319AD0A2D0840
:102CBE00803AFF0080307F02031D672E12302C02F7
:102CCE0003180800432E2A082A072A07A13E860069
:102CDE00013087002B0881002A082A072A07A03E08
:102CEE008600280881002A082A072A07A23E8600A5
:102CFE002908810008000E1108002308AA002208E6
:102D0E00A9002108A8002008A7000130A402003065
:102D1E00A53B240A0319250A031908002908840073
:102D2E002A0885000008A6002708860028088700C4
:102D3E0026088100A90A0319AA0AA70A0319A80AD4
:102D4E008C2E2100630803190800E3018B13190868
:102D5E00C339343899008030A0009F30A100303044
:102D6E00A2002330A300D6269131A0302100A0006E
:102D7E009F30A1005030A2002330A300D6269131FF
:102D8E00C0302100A0009F30A1007030A20023307F
:102D9E00A300D6263C30210099048B17080023008F
:102DAE001513210020082300910021002108230083
:102DBE0092001516151555309600AA3096009514EA
:102DCE000000000023001511151321002008230018
:102DDE009100210021082300920015129516151559
:102DEE002100A6012300940121002608A400A501BC
:102DFE00220786002508233D870001082300930043
:102E0E0055309600AA30960095140000000023005D
:102E1E00910A0319920A21001F30A60A2602031CEA
:102E2E00F92E230094012100220886002308870032
:102E3E005F31010823009300951255309600AA3099
:102E4E009600951400000000230015110800430899
:102E5E00C2002F08A7002E08A6002D08A5002C08DA
:102E6E00A40008004B30C101CC01CB01CD012100E3
:102E7E00AE000130AF000E2B5908803AFF008030B3
:102E8E007F02031D4C2F01305802031C692F2200B4
:102E9E0055082100A900220054082100A800220094
:102EAE0057082100AB00220056082100AA0022007C
:102EBE005808FF3E2100AC00FF302200593D210092
:102ECE00AD00BF2B2200DA0155082100A900220017
:102EDE0054082100A800220057082100AB00220050
:102EEE0056082100AA0022005A082100AC00AD01AC
:102EFE00BF23913122001230DA0A5A020318080059
:102F0E006B2F12113D009301900198010E3021009C
:102F1E00A3009930A200A40122088600230887008E
:102F2E008101A20A0319A30AA40A0319932F1630CA
:102F3E003D0091009F3097007B3092002100A5014B
:102F4E00250809070907203E860000308701C03F8B
:102F5E00C13FC23FC33F0830A50A2502031CA72F5D
:102F6E003D000E1796010E120E133D00901DC72F39
:102F7E0090112200C8012100D601D701D801BC2F23
:102F8E0001302200BB00BC00B801B901B70121001D
:102F9E00A5012508DE3E8600870181012508303E09
:102FAE0086000130870081012508DA3E8600870100
:102FBE0081012508DC3E860002308101A50A25022A
:102FCE00031CD02F2830DE0016303D009800403014
:102FDE002100A000A1012000A20021002108200054
:102FEE00A3000830A1008430A0002200CE01BA0157
:102FFE00080000348434983476349834323498345B
:10300E00093498340934023429340034013401343B
:10301E00003480343C340934043400340034023437
:10302E0003340034003400340934213401340134C3
:10303E00003401342234183400340734053481341A
:10304E0003340834003401340734053401340334B6
:10305E000834003401341A340334623400346C34CE
:10306E000034693400346E3400346B340034283448
:10307E0000343134003429340034203400346D34BB
:10308E0000346B3400343234003406340034FF34F0
:10309E0009340134A1340134153400342634FF349C
:1030AE0000347534083485340134953408340934C9
:1030BE000034B23402340134C034123401340034DA
:1030CE0002340034003400340834B8342734ED347C
:1030DE0001340234003401340234033401340E342A
:1030EE0003345434003468340034693400346E349C
:1030FE000034673400344D3400340434033409345E
:02310E00043487
:103116002100E501E1012200B801B9012100E00129
:103126002200BD0121005E0886000430870181135C
:10313600DE065E08860004308113DE0620006C0879
:10314600860081132200C801C901CA012100D601E7
:10315600D701D801BA20983103302000D000D10120
:10316600D201D301D401D501562598317A2A2000FF
:10317600400E890C0339031D0800410884000D30F8
:103186000402031808008A310435003E8200080054
:103196002200C8170830BA000800F3286A294E3002
:1031A6002200C6000130C7004814C900C81708002D
:1031B600DC29E62B44084F3ED3282200C8172000FE
:1031C60044084F3E8600013087004208810008000F
:1031D6000230D000D101D201D301D401D501562D40
:1031E60020004008803A031D0800C0302200C800B5
:1031F6005D2964302200C6009830C7001230C9002D
:10320600CA0108004208F0000730F101F035F10D5F
:10321600700784009830713D8500003F2200C6008B
:10322600013FC7004708F1004608F000023E84004F
:1032360071080318710A85000008C9004708F100E3
:103246004608F000033E840071080318710A8500E1
:103256000008CA0008000330420203185629420833
:10326600F0000130F101F035F10D7007840098305F
:10327600713D8500003F2200C600013F4D291230F6
:103286002300D6000330D70081302200C800D63094
:10329600C6000130C70046088400470885000008BC
:1032A600C900CA0108004208033A0319422922004C
:1032B600C801080020004308013A0319FC28033A14
:1032C60003190529013A03192E295A290800220053
:1032D600C8170E30FB009930FA00FC017A08860008
:1032E6007B0887008101FA0A0319FB0AFC0A031905
:1032F60071292030F000F101F201F301F400F5012B
:10330600C32198313D000E17FD017D08DA3E860087
:10331600870181017D08DC3E860002308101FD0ABD
:103326007D02031C88294F30F0000130F100F201C4
:10333600F301F401F40AF501C32198313D000E139F
:1033460028302100DE0020302000EB00EC0042088F
:103356002200CE00CE08031DB3291030BA000800A3
:1033660020004E30D001D00AD101D2000130D30066
:10337600D401D40AD501562520302200BA0008000F
:103386007108F8007008F7000130F4020030F53BD0
:10339600740A0319750A031908007208F6007708FB
:1033A60086007808870076088100F70A0319F80A6C
:1033B600C7292000C801C9010B2A2200C81720000E
:1033C60048142200360B162A2000C814162A22009A
:1033D600C817162A2200C8172000C41BF92944085A
:1033E6000F39303E860001308700FE2944080F3928
:1033F600DE3E860087010108F00086008701811FF6
:10340600162A70088600011D162A0130C800162AE1
:1034160040081F390319E029013A0319EA29033A3A
:103426000319ED29162A2200C81F08004830C600D5
:10343600C70148140230C900080021005E08860052
:1034460000308701011B01302000E100043021001B
:10345600DE0622003A08083A031D3D2A20004208EB
:103466003D009600160803193A2A10303B2A04300C
:103476002200BA003D0B6C2A48302000DF00E00134
:1034860021005E08023E8600870120005F08C03FDB
:103496006008C13F1223983121006508023A031DD6
:1034A6005A2A5E08860084308701810008002000C1
:1034B600E108031D652A21005E088600C8308701E1
:1034C6008100080021005E0886008830870181009F
:1034D60008002100D61F772A59080319752A5908AA
:1034E6008F3101272100D6132200BD0108003D00BF
:1034F6000E122200C81BA72A2100D61F8D2A0230D1
:103506002200BD00B908031D892AD2222200BC016F
:10351600BB01080020006C0A860008308701810084
:103526004030F500F6016C08023E86007508C03F83
:103536007608C13F6C0886008C30810021005E0849
:1035460086008430810008002000C01FBA2A01309E
:103556002200BD00B808031DB22AD22298312200EB
:10356600BC01BB012100E108031D0800782D0230D3
:103576002200BD0020006C0A860008308701810009
:103586004030F500F6016C08023E86007508C03F23
:103596007608C13F6C08860084308100B22AB801E3
:1035A600B9013D08023A031DED2A20006C0A860087
:1035B6000830870181004830F300F4016C08023EB0
:1035C60086007308C03F7408C13F6C088600C83087
:1035D600810008004A0820004702031DF62A22003F
:1035E6004908200046020318FF2A47082200CA009D
:1035F600200046082200C900122398314830F30003
:10360600F40121005E08023E860087017308C03F70
:103616007408C13F5E088600C83081000800083083
:10362600F200003022004A0208300319490203184A
:10363600282B4908F2002100E508031D242B013040
:10364600272B650B282B0230E50022004A08F100E3
:1036560072084902F000031CF103C9007108CA0090
:1036660021005E0A86008701720881004830220028
:10367600BF00481C4D2B5F2B3F088600870146087C
:1036860084004708850000088100C60A0319C70A96
:10369600BF0AF203F208031908003F2B3F08860011
:1036A6008701460884004708850000088100C60A8D
:1036B6000319C70ABF0AF203F20803190800512BBF
:1036C60020006B0886008701413FE200DF00E00131
:1036D600600821005802031D742B20005F0821009A
:1036E60057020318792B57082000E20021005808DA
:1036F6002000E0006208210057022000DF00031CC2
:10370600E0032100D700200060082100D800200037
:10371600E101620861020318A02B2100540886000B
:10372600870120006108483E840085010008810069
:103736002100D40A2000E10A8C2B0330D43E8600F7
:103746008701160001040319C52B6C0A8600083090
:10375600870181004830DF00E0016C08023E8600E8
:103766005F08C03F6008C13F6B0886006C08011BFC
:10377600C02B8600C830810008008600883087018B
:10378600810008006C0A86000830870181004030FD
:10379600DF00E0016C08023E86005F08C03F60085B
:1037A600C13F6C0886008430810021005908031946
:1037B600E02B59088F31012798312100D613E108F3
:1037C600031D0800782D2000420BFA2B40081F39F4
:1037D600031DFA2B2200C81720004108033A031DD7
:1037E600F82B01302200B600FA2B2200B601200089
:1037F6004208031D080040081F39023A031D08004D
:1038060044080F390319080044080F39FA0002303A
:103816007A020318080022003A08203A031D08001D
:10382600C8172000C41B252C44080F39303E8600DB
:10383600013087000108D90044080F39DC3E8600B4
:103846008701302C44080F39DE3E860087010108C7
:10385600D90044080F39DA3E86000108D800581806
:10386600362C5911372C5915C41B402C44080F39D6
:10387600303E860001308700452C44080F39DE3E75
:1038860086008701590881004108033A031D622C0E
:10389600590886008701811F5C2CC41B562C4408DE
:1038A6000F39DC3E592C44080F39DA3E8600870171
:1038B6008114590886008430870181040800043089
:1038C600D9065908860087015908811F7A2C860077
:1038D6008113860005300117D000D1015908D200A6
:1038E600D301D401D40AD501562598317D2C860002
:1038F6008701011704302000D906D818872C5908EB
:1039060086008701811FA32CC41B8D2C44080F3908
:10391600DC3E902C44080F39DA3E86008701811080
:10392600590886003B3081050530D000D101590881
:10393600D200D301D401D40AD50156259831A82C3A
:10394600590886003B3087018105200044080F395D
:10395600983EFA000E30FB01FB3D7A08D6007B0844
:10396600D700560886005708870001100800220075
:103976003A03031DC72C3D008E1AC72C9001121462
:10398600121602302200BA003D001019121DCE2C6C
:103996001011402698318E1CD32C200012110800DD
:1039A6001018121CDF2CBF25983121001215043087
:1039B6002200BA003D001010101A121EE62C312605
:1039C60098313D001012101F002D121FF52C733078
:1039D6002000D000D101D201D301D401D40AD501EF
:1039E600562598313D00101321006208031DE2039D
:1039F600E208031D002D782598313D00901A921E8D
:103A0600062D992698319018921C172DFF3020000C
:103A1600D0007F30D100D201D301D401D40AD50120
:103A2600562598313D009301043022003A02031CCA
:103A3600D02C3D00921DD02C2000E9013D00901DA8
:103A4600D02C0F082000EF006F0CE800E80C680C83
:103A56000F392100E4003D00901120006F19372D29
:103A660021006408DC3E3A2D21006408DA3E860017
:103A7600013087018106E408031D442D5126983143
:103A86004F2D72302000D0006F30D101D200D3010B
:103A9600D401D5015625983120000430E90A69027F
:103AA6000318D02C212D5108003A0319652D7F3AB1
:103AB6000319722D772DBD2EBF2EBE2EB32EBA2E14
:103AC600BB2EBC2E5008FF3E031C08008400753038
:103AD60004020318080089310435043E82005008A8
:103AE600FF3A0319642D772D08002200BB08031D39
:103AF60008000130BB00BC08031D0800BC003D08DF
:103B0600023A031D902D21005E0A8600870181017D
:103B16005E088600C830810008003D0B08002100C1
:103B2600E00120006B0A86000830870181004030E2
:103B3600F000F1016B08023E86007008C03F710874
:103B4600C13F6B0886008430810001302100E0000F
:103B560020006C0A8600083081004030F000F10138
:103B66006C08023E86007008C03F7108C13F6C08B1
:103B76008600803081000800210012113D0093016B
:103B8600900198010E30F3009930F200F4017208AA
:103B96008600730887008101F20A0319F30AF40A02
:103BA6000319CA2D163091009F3097007B30920082
:103BB600F501750809070907203E860000308701D0
:103BC600C03FC13FC23FC33F0830F50A7502031C20
:103BD600DC2D0E1796010E120E133D00901DFB2DC7
:103BE60090112200C8012100D601D701D801F02D7D
:103BF60001302200BB00BC00B801B901B701F501D4
:103C06007508DE3E8600870181017508303E860014
:103C16000130870081017508DA3E8600870181013F
:103C26007508DC3E860002308101F50A7502031C28
:103C3600032E28302100DE0016303D00980040306B
:103C4600F000F1012000A2007108A3000830A100D5
:103C56008430A0002200CE01BA010800121510120D
:103C66008E1401302200B70075302000D000D1013B
:103C7600D201D301D401D501562D2200B7017430EB
:103C86002000D0000030D101D201D301D401D501EA
:103C960056253D008E101211101108002D30E2003D
:103CA60020006F08FD39031D922E6F363F39090734
:103CB6000907203EEB00EC000430EC066B0886009A
:103CC6008701010C890C0F390D3A031D902EE7016F
:103CD6006708403E860087016B08023E8400850126
:103CE60000088400000881006B08023E860001304F
:103CF600810741310318810A0830E70A6702031C6D
:103D06006B2E4030E500E6016B08023E8600870117
:103D16006508C03F6608C13F8B288F31062FFD30EE
:103D26006F05E500043A031D0800202A181CB12E71
:103D360020006B08860087010108803A031DAF2E1C
:103D460021005E0886000108843A031DAF2E20007C
:103D56006B0886008C3081003D0018109012080018
:103D66001E30F4000130C0262200C50A08000800F3
:103D7600082F0800080008000800F900741DC62E68
:103D8600F001DF269831F41CCC2EF001F00A7908F8
:103D9600DF267908983EF5000E30F601F63D7508E7
:103DA600F7007608F8007408F500770886007808AA
:103DB6008700750881000800F2002030F3007008C3
:103DC600F100F135720809070907710709070907A4
:103DD600F3077308860087018113F008031DF92E87
:103DE6007208303E860001308700FD2E7208DE3EE6
:103DF6008600870173088100730886008701011316
:103E06007308043E86000117080040081F39013A6E
:103E1600031D08004408031D08004108063A03195B
:103E2600292F342F22004E0B342F1B30C60098301A
:103E3600C7000930242F4C302200C6009830C70036
:103E46001830C900CA01C030C800342F4308213ACF
:103E56000319152F033A03191E2F013A0319342F9C
:103E6600342F2000400E890C0339013A031D080047
:103E7600632F8F314B2F712F51302200C600013036
:103E8600C700C900CA01C130C8000800803022003E
:103E9600C800200043082200D1000800503022004C
:103EA600C6000130C700C900CA018130C800080039
:103EB60080302200C800200042082200D0000800FE
:103EC6004108FF3E031C080084000B30040203185F
:103ED60008008F310435293E820008004830210051
:103EE600D400200047082100D80020004608210001
:103EF600D7000130D900D61708000034FF3400344B
:103F06003234003401340034FF34003432340034A7
:103F16000234003400340034323400340034FF34C8
:103F260000340034323400340134FF3400340034B9
:103F36003234003402340034003400343234003475
:103F4600003400340034FF34323400340134003499
:103F56000034FF3432340034023400340034003488
:103F66003234003400348034803480346434003495
:103F76000034003400340034643400340034FF3438
:103F8600FF34FF343234003401340034003400345A
:103F9600323400340134FF34FF34FF343234003419
:103FA6000234003400340034643400340234003403
:0A3FB6000034003464340034003499
:083FF00021344334BA34DC34FF
:020000040001F9
:04000E0084CFCFFFCD
:00000001FF
