:0400000080311D2806
:10000800803120007F082100ED00953113258031D3
:10001800911C18282200A80A0319A90A0319AA0A78
:100028000319AB0A2000911021006D082000FF0081
:1000380009008C31FE2C91312D2991312E299131D5
:100048001B2991312E2991311B2991311C2991317C
:10005800222991313D299131242991312329913146
:100068002F299131322991311B299731402F97310E
:10007800422F9731542F9731732F9731732F973120
:10008800732F9731732F9731732F9731412F9731F2
:060098004C2F97315E2F92
:1002000000298131820703298131062948300829D4
:10021000EC00B030F600F7016C08F8000830F90186
:10022000FA00FB01DC24813121006C088600870183
:10023000413FE8006C088600423FEA006C088600F7
:10024000433FE9006C088600443FEB006808633ACE
:10025000031D4F296C08063E86006C08053E84008D
:1002600085010008D4000108D3006C088600473FD0
:10027000D5002200E930BB012000D400D5012100C7
:1002800054082000D700210053082000D600210088
:1002900055082000D800D9018631A8260800680832
:1002A0006E3A031D7F296C0886008701473FDE00F8
:1002B0002200BB0121005E0803196E2903302200D1
:1002C000BB0021006908F0006B08F1005E08F20035
:1002D0006A0886316326813101250800E930200053
:1002E000D400D501D601D701D801D9018631A8267D
:1002F0008131E930F6000030F70125230800680855
:10030000723A031DA7296C0886008701473FE70062
:100310006708031DE703670867076707A13E8600B4
:10032000013087000108B200670867076707A03E31
:1003300086000108B300670867076707A23E8600CA
:100340000108B400B501B6016708B70008006808E5
:10035000703A031DD1296C0886008701423F2200B4
:10036000BB0021006C088600433F2200BD00210035
:100370006C088600443F2200ED0021006C088600D6
:10038000453F2200BA006D080319CA2921306D02C9
:10039000031CCD292030ED00CE29ED0A87310B2733
:1003A00008006808533A031DEB2922003B0821008E
:1003B000B20022003D082100B30022006D08210098
:1003C000B40022003A082100B50022003C082100B8
:1003D000B600B70108006808503A031D352A6C08BA
:1003E00086008701423F2300E90021006C08860057
:1003F000433F2300E80021006C088600443F2300AF
:10040000EA0021006C08063E86006C08053E840068
:10041000850100082300EC000108EB0021006C08B6
:100420008600473FDF0020305F020318DF013030D5
:10043000F6002330F7005F08F0000630F101F2000B
:10044000F3018724813170082000E3007108E40083
:100450006308F6076408F73DE830F8000130F9005A
:100460000630FA00FB01DC2408006808523A031D3C
:100470006B2A6C0886008701473FE000203060024D
:100480000318E0016008F0000630F101F200F3010A
:100490008724813130302000E3002330E4007008ED
:1004A000630786007108643D8700E13084000030F6
:1004B00085000630FF0016001A00FF0B5B2A2100A2
:1004C0006208B2006108B3006308B4006508B500B3
:1004D0006408B60008006808573A031D8F2A6C08A4
:1004E000023E860087010108BE3A031D08006C0821
:1004F000033E86000108EF3A031D08006C08043E25
:1005000086000108CA3A031D08006C08053E8600F3
:100510000108FE3A031D0800CD01CD0A0800680855
:10052000443A031DF12A6C0886008701423FD60039
:100530006C08043E86006C08033E840085010008B8
:10054000D9000108D8006C088600453FD7006C0828
:100550008600463F2200BD0021006C088600473F10
:100560002200ED006D080319B92A21306D02031C29
:10057000BB2A2030ED00210056080319E72A59084C
:100580002200AF00210058082200AE0021005908C7
:10059000F1005808F0000A30F200F301872481319D
:1005A0007008BE007108BF00C001C1012200280808
:1005B0002100BE07220029082100BF3D22002A0891
:1005C0002100C03D22002B082100C13DEA2A220063
:1005D000AE01AF012100D708031D08008631FF26B8
:1005E00008006808763A031DF92A3230B300B400D7
:1005F00008006808213A031D08000530F00080302B
:10060000F1008631DB26813171082100DB007008A2
:10061000DA000630F0008030F1008631DB26710808
:100620002100DD007008DC005530B100AA30B200B6
:1006300022003E082100B3005B08B4005A08B50050
:100640005D08B6005C08B7000800F8012130FA0028
:10065000C830F9007808F0001430F101F200F3011D
:10066000872481317008F9077108FA3D7608860001
:100670007708870041310108F0006430F101F20091
:10068000F30187248131790886007A0887004E318A
:100690007008C03F7108C13F760886007708870060
:1006A0000108F0006430F101F200F3018724813188
:1006B000790886007A0887004C317008C03F7108BD
:1006C000C13F760886007708870042310108F000B4
:1006D0006430F101F200F30187248131790886004A
:1006E0007A08870050317008C03F7108C13F79080F
:1006F00086007A0887004E31790884007A088500E0
:100700000231403F803F413F813F790886007A08AF
:1007100087004C31790884007A088500403F803F8B
:10072000413F813F790886007A0887005031790877
:1007300084007A0885000431403F803F413F813F7B
:10074000790886007A08870052310030C03FC13FE7
:1007500076088600770887000108F0007608860092
:100760007708870042310108F1007808F200760826
:100770008600770887004131010886316326813180
:100780001230F80A7802031C262B012508002130BC
:10079000D300C830D2007D08F1007C08F00014308E
:1007A000F200F301872481317008D2077108D33D2C
:1007B000780886007908870041310108F00064302C
:1007C000F101F200F30187248131520886005308B9
:1007D000870042317008C03F7108C13F7808860029
:1007E000790887000108F0006430F101F200F3019C
:1007F0008724813152088600530887007008C03F63
:100800007108C13F780886007908870042310108E5
:10081000F0006430F101F200F301872481315208C5
:1008200086005308870044317008C03F7108C13FFB
:100830007A08013ED00000307B3DD100520886008E
:100840005308870052315008C03F5108C13F7B0810
:10085000F1007A08F00052088600530887004E31F4
:1008600052088400530885000231403F0002F20024
:100870000131413F003BF3009C2481315208860046
:100880005308870048317008C03F7108C13F7B089A
:10089000F1007A08F00052088600530887004C31B6
:1008A0005208840053088500403F0002F2000131E5
:1008B000413F003BF3009C248131520886005308DD
:1008C000870046317008C03F7108C13F7B08F100C6
:1008D0007A08F00052088600530887005031520809
:1008E0008400530885000431403F0002F2000131CA
:1008F000413F003BF3009C2481315208860053089D
:1009000087004A317008C03F7108C13F0800F401F8
:10091000F501701C8F2C7208F4077308F53DF23551
:10092000F30DF136F00C71087004031D892C750865
:10093000F1007408F0000800F501F11FA62CF00981
:10094000F109F00A0319F10AF501F50AF31FAF2CBA
:10095000F209F309F20A0319F30A0130F506F60168
:10096000F701710870040319CF2CF401F40AF11B8C
:10097000BC2CF035F10DB62CF635F70D710873026D
:10098000031DC42C70087202031CCB2C7008F202E9
:100990007108F33B7614F136F00CF40BBC2C75089F
:1009A0000319D72CF609F709F60A0319F70A77088D
:1009B000F1007608F000080079082000D3007808DC
:1009C000D2007708D1007608D0000130FA0200305A
:1009D000FB3B7A0A03197B0A0319080052088400BA
:1009E000530885000008FC00500886005108870065
:1009F0007C088100D20A0319D30AD00A0319D10A4C
:100A0000E52C8531EE2508009531B62D9531B72DB1
:100A10009531B82D9531CC2D9531CC2D9531CC2DEE
:100A20009531CC2D9531CC2D9531CC2D9531CC2DCA
:100A30009531CC2D9531CC2D9531CC2D9531CC2DBA
:100A40009531CC2D9531CC2D9531CC2D9531CC2DAA
:100A50009531CC2D9531CC2D9531CC2D9531CC2D9A
:100A60009531CC2D9531CC2D9531CC2D9531CC2D8A
:100A70009531CC2D9531CC2D9531CC2D9531CC2D7A
:100A80009531CC2D9531CC2D9531CC2D9531CC2D6A
:100A90009531CC2D9531CC2D9531CC2D9531CC2D5A
:100AA0009531CC2D9531CC2D9531CC2D9531CC2D4A
:100AB0009531CC2D9531CC2D9531CC2D9531CC2D3A
:100AC0009531CC2D9531CC2D9531CC2D9531CC2D2A
:100AD0009531CC2D9531CC2D9531CC2D9531CC2D1A
:100AE0009531CC2D9531CC2D9531CC2D9531CC2D0A
:100AF0009531CC2D9531CC2D9531CC2D9531CC2DFA
:100B00009531CC2D9531CC2D9531CC2D9531CC2DE9
:100B10009531CC2D9531CC2D9531CC2D9531CC2DD9
:100B20009531CC2D9531CC2D9531CC2D9531CC2DC9
:100B30009531CC2D9531CC2D9531CC2D9531CC2DB9
:100B40009531CC2D9531CC2D9531CC2D9531CC2DA9
:100B50009531CC2D9531CC2D9531CC2D9531CC2D99
:100B60009531CC2D9531CC2D9531CC2D9531CC2D89
:100B70009531CC2D9531CC2D9531CC2D9531CC2D79
:100B80009531CC2D9531CC2D9531CC2D9531CC2D69
:100B90009531CC2D9531CC2D9531CC2D9531CC2D59
:100BA0009531CC2D9531CC2D9531CC2D9531CC2D49
:100BB0009531CC2D9531CC2D9531CC2D9531CC2D39
:100BC0009531CC2D9531CC2D9531CC2D9531CC2D29
:100BD0009531B32D9531B52D9531B42DA030200030
:100BE000E100E0003630E0078B132000610860026E
:100BF000031C612E61088600013087000108E200B5
:100C0000E10AE21B052EE030062EFE30D000D101B5
:100C1000240091000B2E0C2E2000621B112EE030C0
:100C2000122EFE30D200D30124009100172E182E70
:100C30002000E21A1D2EE0301E2EFE30D400D50119
:100C400024009100232E242E2000621A292EE03049
:100C50002A2EFE30D600D701240091002F2E302EF0
:100C60002000E219352EE030362EFE30D800D901B2
:100C7000240091003B2E3C2E20006219412EE030D2
:100C8000422EFE30DA00DB0124009100472E482E70
:100C90002000E2184D2EE0304E2EFE30DC00DD014B
:100CA00024009100532E542E20006218592EE0305B
:100CB0005A2EFE30DE00DF01240091005F2E602EF0
:100CC000F52D8B170800F3007208FF3A031D902ED4
:100CD000F401F501740874077407A13E8600013021
:100CE000870073088100740874077407A03E8600AB
:100CF00070088100740874077407A23E86007108AA
:100D00008100F40A0319F50A7508803AFF00803063
:100D10007F02031D8D2E12307402031808006A2E04
:100D2000720872077207A13E8600013087007308BF
:100D30008100720872077207A03E86007008810069
:100D4000720872077207A23E8600710881000800CF
:100D50005908803AFF0080307F02031DB12E013018
:100D60005802031CC52E20005508F9005408F8004D
:100D70005708FB005608FA005808FF3EFC00FF30F9
:100D8000593DFD008331C72308002000DA015508D2
:100D9000F9005408F8005708FB005608FA005A08F2
:100DA000FC00FD018331C72386311230DA0A5A0272
:100DB00003180800C72E7008230091009201151730
:100DC0008B131514000000008B1723001308F0008C
:100DD000F1011408F200F301F300F2017208F004CB
:100DE0007308F10408006400800101310130FE0243
:100DF0000030FF3B7F087E0403190034F42E2200EC
:100E00004430BB01C501C401C601F6000130F70042
:100E10008331252308003D08BC002B08A7002A08C1
:0C0E2000A6002908A5002808A40008006E
:1011A200DE012130E000C830DF005E082100A0002F
:1011B2001430A101A200A301642488312008220076
:1011C200DF07210021082200E03D5F088600600859
:1011D2008700523116000104031998295F0886001E
:1011E200600887005231FF3081074131813D7F31F4
:1011F2005F08860060088700523116000104031957
:1012020033295F0886006008870048315F08840040
:10121200600885000E31403F80070131413F803D2B
:101222003F315F0886006008870046315F0884000E
:10123200600885000C31403F80070131413F803D0D
:101242003F315F088600600887004A315F088400EA
:10125200600885001031403F80070131413F803DE9
:101262003F315C295F0886006008870042315F08D1
:101272008400600885000E31403F803F413F813F3E
:101282005F088600600887005F08840060088500A8
:101292000C31403F803F413F813F5F08860060083C
:1012A200870044315F088400600885001031403FA8
:1012B200803F413F813F64302100A000A101220014
:1012C2005F088600600887004C31403F2100A20081
:1012D200413FA300792488312008A8006430A0008F
:1012E200A10122005F088600600887005031403F5C
:1012F2002100A200413FA300792488312008A900DF
:1013020022005E082100AA006430A000A101220090
:101312005F088600600887004E31403F2100A2002E
:10132200413FA30079248831200889268831220090
:101332001230DE0A5E02031CD228D02E22002B08B5
:10134200E8002A08E7002908E6002808E500200846
:101352006502E1002108663BE2002208673BE300E8
:101362002308683BE4006408803AFF0080307F0273
:10137200031DC52900306302031DC5290030620226
:10138200031DC52901306102031CF3290A30A0079D
:1013920001300318A1070318A2070318A307D120DD
:1013A2008831BE08031DED29BB08031DF329003057
:1013B2006802031DE62900306702031DE629013099
:1013C2006602031DE629F5306502031CF32902308B
:1013D200BB007E268831F3293B08023A031DF3291C
:1013E200D12688312F082E040319242A21003E0811
:1013F20022006502E10021003F082200663BE20074
:10140200210040082200673BE3002100410822003E
:10141200683BE4006408803AFF0080307F02031DCD
:101422001C2A00306302031D1C2A00306202031DC5
:101432001C2A01306102031C242AAE01AF01BB0148
:10144200BB0A7E2688313B0803190800240865027E
:10145200E1002508663BE2002608673BE300270817
:10146200683BE4006408803AFF0080307F02031D7D
:10147200442A00306302031D442A00306202031D25
:10148200442A01306102031C08003C082100A0002C
:101492000630A101A200A301642488313030220069
:1014A200E1002330E20021002008220061078600CB
:1014B200210021082200623D8700403FC400413FD5
:1014C200C500423FC6003C082100A0000630A10131
:1014D200A200A3016424883133302200E1002330CA
:1014E200E200210020082200610786002100210875
:1014F2002200623D8700403FB000413FB1003C08FE
:101502002100A0000630A101A200A30164248831B9
:1015120035302200E1002330E200210020082200C1
:1015220061078600210021082200623D8700010830
:10153200B80031083004031DA62AC508031DA62AD7
:10154200C4080319C6080319B32A4430CD00013078
:10155200CE003108D0003008CF003808D100D201C7
:10156200B92488312200BC0A3C086D06031DC32A37
:101572003D08BC00BA0BBF2ABB01C32A3A08FF3A96
:101582000319BA0131082100A1002200300821000C
:10159200A0000A30A200A301642420082200A407AC
:1015A200210021082200A53D0030A63DA73D0800EC
:1015B2002200DE012130E000C830DF005E08210099
:1015C200A0001430A101A200A301642488312008E4
:1015D2002200DF07210021082200E03D21002E0821
:1015E20086002F08870041310108A0006430A10164
:1015F200A200A3016424883122005F0886006008EB
:1016020087004E3121002008C03F2108C13F2E082B
:1016120086002F0887000108A0006430A101A20003
:10162200A3016424883122005F08860060088700D5
:101632004C3121002008C03F2108C13F2E088600FE
:101642002F08870042310108A0006430A101A200E6
:10165200A3016424883122005F08860060088700A5
:10166200503121002008C03F2108C13F22005F08FD
:101672008600600887004E315F088400600885009C
:101682000231403F803F413F813F5F088600600852
:1016920087004C315F08840060088500403F803F2E
:1016A200413F813F5F0886006008870050315F0834
:1016B2008400600885000431403F803F413F813F04
:1016C2005F0886006008870052310030C03FC13F8A
:1016D20021002E0886002F0887000108A8002E0886
:1016E20086002F08870042310108A90022005E0807
:1016F2002100AA002E0886002F0887004131010828
:101702008926883122001230DE0A5E02031CDB2A9F
:10171200D02E21302200CC00C830CB0021002D0871
:10172200A1002C08A0001430A200A3016424883177
:1017320020082200CB07210021082200CC3D2100F5
:10174200280886002908870041310108A00064307A
:10175200A101A200A3016424883122004B08860063
:101762004C088700423121002008C03F2108C13FB8
:1017720028088600290887000108A0006430A1011A
:10178200A200A3016424883122004B0886004C0881
:10179200870021002008C03F2108C13F2808860099
:1017A2002908870042310108A0006430A101A2008B
:1017B200A3016424883122004B0886004C0887006C
:1017C200443121002008C03F2108C13F2A08013EC0
:1017D200AE0000302B3DAF0022004B0886004C08C3
:1017E2008700523121002E08C03F2F08C13F2B082D
:1017F200A1002A08A00022004B0886004C0887009E
:101802004E314B0884004C0885000231403F0002F3
:101812002100A2000131413F003BA300792488311D
:1018220022004B0886004C0887004831210020081E
:10183200C03F2108C13F2B08A1002A08A0002200B6
:101842004B0886004C0887004C314B0884004C083A
:101852008500403F00022100A2000131413F003BD0
:10186200A3007924883122004B0886004C088700A7
:10187200463121002008C03F2108C13F2B08A100AA
:101882002A08A00022004B0886004C08870050312D
:101892004B0884004C0885000431403F00022100BF
:1018A200A2000131413F003BA3007924883122008C
:1018B2004B0886004C0887004A3121002008C03FAF
:1018C2002108C13F0800A401A501201C6C2C22089C
:1018D200A4072308A53DA235A30DA136A00C21081B
:1018E2002004031D662C2508A1002408A00008007E
:1018F200A501A11F832CA009A109A00A0319A10A0D
:10190200A501A50AA31F8C2CA209A309A20A0319E7
:10191200A30A0130A506A601A70121082004031984
:10192200AC2CA401A40AA11B992CA035A10D932CC7
:10193200A635A70D21082302031DA12C200822028F
:10194200031CA82C2008A2022108A33B2614A136BE
:10195200A00CA40B992C25080319B42CA609A709DD
:10196200A60A0319A70A2708A1002608A000080052
:101972005208803AFF0080307F02031DC22C0130E2
:101982005102031CDF2C22004E082100A900220074
:101992004D082100A800220050082100AB002200BF
:1019A2004F082100AA0022005108FF3E2100AC008E
:1019B200FF302200523D2100AD008A2B2200D301CC
:1019C2004E082100A90022004D082100A800220093
:1019D20050082100AB0022004F082100AA0022007B
:1019E20053082100AC00AD018A2388312200123055
:1019F200D30A530203180800E12CC83084002130B6
:101A020085002830FE000230FF008631F32688313F
:101A1200B8308400003085001B30FE000030FF002B
:101A22008631F326883120308400013085002B3046
:101A3200FE000030FF008631F3268831A03084009A
:101A4200013085004E30FE000030FF008631F32663
:101A5200883122002030ED0020002F2D772588319B
:101A6200F92688313030A0002330A100C030A20115
:101A7200A301A400A501E02688313030A000233064
:101A8200A1008030A2009F30A3006030A400A50115
:101A9200D4258831DB268831FF302200EC0010305B
:101AA200EA009430E900E90B542DEA0B542D0000B2
:101AB20022006C0E0F39EB002100A80022006B08F7
:101AC2002100A900FF30AA0022006B088926883174
:101AD200D0268831EC03031D502D7E268831D12675
:101AE20088319F218831F8258831722D23008C019D
:101AF2008E0121008C018E019801FC3099009030FA
:101B020027009B0020001C08FC3901389C001C089F
:101B1200873958389C00F2309B001C152100911423
:101B22000B17A7012708F83E84009F300318013ED7
:101B320085000008A500250E0F39C8258831A300AD
:101B42002508C8258831A4002735A6002308A1004E
:101B5200A2012635D83E8600013087002108C03F09
:101B62002208C13F2408A100A2012635DA3E8600E0
:101B7200013087002108C03F2208C13FA70A043074
:101B82002702031C932DC62D932D8B17122FA00015
:101B92000F30A0050A30200220080318D22D303E53
:101BA2000800373E08002308AA002208A9002108DD
:101BB200A8002008A7000130A4020030A53B240A97
:101BC2000319250A03190800290884002A08850038
:101BD2000008A6002708860028088700260881003A
:101BE200A90A0319AA0AA70A0319A80ADC2D2100C7
:101BF2004D0803190800CD018B131908C339343875
:101C020099008030A0009F30A1003030A200233024
:101C1200A30026268831A0302100A0009F30A10019
:101C22005030A2002330A30026268831C030210084
:101C3200A0009F30A1007030A2002330A30026260E
:101C42003C30210099048B17080023001513210052
:101C5200200823009100210021082300920015167C
:101C6200151555309600AA30960095140000000014
:101C720023001511151321002008230091002100D3
:101C82002108230092001512951615152100A601B0
:101C92002300940121002608A400A5012207860042
:101CA2002508233D87000108230093005530960044
:101CB200AA3096009514000000002300910A03192F
:101CC200920A21001F30A60A2602031C492E230075
:101CD2009401210022088600230887005F31010851
:101CE20023009300951255309600AA309600951461
:101CF200000000002300151108003D08BC002B085D
:101D0200A7002A08A6002908A5002808A4000800A0
:101D12002100AB002A08FF3A031DB82EAC01AD0129
:101D220021002C082C072C07A13E860001308700D9
:101D32002B0881002C082C072C07A03E86002808BF
:101D420081002C082C072C07A23E8600290881005E
:101D5200AC0A0319AD0A2D08803AFF0080307F02D9
:101D6200031DB52E12302C0203180800912E2A08EA
:101D72002A072A07A13E8600013087002B0881002E
:101D82002A082A072A07A03E8600280881002A0876
:101D92002A072A07A23E86002908810008008B2F05
:101DA2004430BB01C501C401C6012100AE000130AF
:101DB200AF00D92A24009512950195160800210832
:101DC200A8002008A7000130A4020030A53B240A85
:101DD2000319250A031908002208A600270886000D
:101DE2002808870026088100A70A0319A80AE42EFA
:101DF200CA08031D08003D008E01920116309100B1
:101E02009F3097007B309200210012150B178B1721
:101E12003D008E190E2F8E15092F01302100CA00A8
:101E2200080012113D009301900198010E3021002B
:101E3200A3009930A200A40122088600230887008B
:101E42008101A20A0319A30AA40A03191D2F16303D
:101E52003D0091009F3097007B3092002100A50148
:101E6200250809070907203E860000308701C03F88
:101E7200C13FC23FC33F0830A50A2502031C312FD0
:101E82003D000E1796010E120E133D00901D512FAC
:101E920090112200C1012100BA01BB01BC01462FF1
:101EA20001302200B600B700B401B501B301210030
:101EB200A5012508C63E86008701810125082C3E22
:101EC20086000130870081012508C23E8600870115
:101ED20081012508C43E860002308101A50A25023F
:101EE200031C5A2F2830C60016303D00980040309F
:101EF2002100A000A1012000A20021002108200051
:101F0200A3000830A1008430A0002200C7012100F4
:101F1200CA010800A0302200DC00DB003630DB07FB
:101F22008B1322005C085B02031CFE2F5C088600F8
:101F3200013087000108DD00DC0ADD1BA22FE03042
:101F4200A32FFE30CB00CC0124009100A82FA92F93
:101F520022005D1BAE2FE030AF2FFE30CD00CE0150
:101F620024009100B42FB52F2200DD1ABA2FE030E1
:101F7200BB2FFE30CF00D00124009100C02FC12F13
:101F820022005D1AC62FE030C72FFE30D100D201E9
:101F920024009100CC2FCD2F2200DD19D22FE0306A
:101FA200D32FFE30D300D40124009100D82FD92F93
:101FB20022005D19DE2FE030DF2FFE30D500D60182
:101FC20024009100E42FE52F2200DD18EA2FE030F3
:101FD200EB2FFE30D700D80124009100F02FF12F13
:101FE20022005D18F62FE030F72FFE30D900DA011B
:0E1FF20024009100FC2FFD2F922F8B1708006A
:1021BE002100D101C9012200B401B5012100C801DD
:1021CE00CC0146088600043087018113C6064608F6
:1021DE00860004308113C606500886008113220043
:1021EE00C101C201C3012100BA01BB01BC010B2117
:1021FE00903103302000D000D101D201D301D4019F
:10220E00D501AB259031CA2A2000400E890C033926
:10221E00031D0800410884000D3004020318080055
:10222E00803104351F3E820008002200C11708309D
:10223E002100CA0008008929002A47302200BF0069
:10224E000130C0004114C200C117080045293E2CC0
:10225E004408483E25292200C11720004408483E64
:10226E008600013087004208810008000230D0004D
:10227E00D101D201D301D401D501AB2D2000C8016B
:10228E00C90174292200C117200048142200320B04
:10229E007F292000C8147F292200C1177F29220020
:1022AE00C1172000C41B622944080F392C3E86003A
:1022BE0001308700672944080F39C63E8600870122
:1022CE000108F00086008701811F7F2970088600B3
:1022DE00011D7F290130C8007F2940081F390319CD
:1022EE004929013A03195329033A031956297F291B
:1022FE002200C11F08004830BF00C0014114023047
:10230E00C200080020004008803A031D0800C030BB
:10231E002200C100F32964302200BF009830C000B3
:10232E001230C200C30108004208F0000730F1016C
:10233E00F035F10D700784009830713D8500003F37
:10234E002200BF00013FC0004008F1003F08F0002E
:10235E00023E840071080318710A85000008C2004D
:10236E004008F1003F08F000033E84007108031896
:10237E00710A85000008C3000800033042020318EA
:10238E00EC294208F0000130F101F035F10D700733
:10239E0084009830713D8500003F2200BF00013F50
:1023AE00E32912302300D6000330D70081302200FB
:1023BE00C100D630BF000130C0003F088400400885
:1023CE0085000008C200C30108004208033A031941
:1023DE00D8292200C101080020004308013A031940
:1023EE009229033A03199B29013A0319C429F029AA
:1023FE0008002200C1170E30FB009930FA00FC01D4
:10240E007A0886007B0887008101FA0A0319FB0A05
:10241E00FC0A0319072A2030F000F101F201F30142
:10242E00F400F5015A2290313D000E17FD017D0892
:10243E00C23E8600870181017D08C43E86000230BF
:10244E008101FD0A7D02031C1E2A4830F000013076
:10245E00F100F201F301F401F40AF5015A22903170
:10246E003D000E1328302100C6002030CF00D000D2
:10247E00200042082200C700C708031D4A2A103058
:10248E002100CA00080020004730D001D00AD10137
:10249E00D2000130D300D401D40AD501AB252030AF
:1024AE002100CA0008007108F8007008F70001301A
:1024BE00F4020030F53B740A0319750A031908007B
:1024CE007208F60077088600780887007608810083
:1024DE00F70A0319F80A5E2A210046088600003022
:1024EE008701011B01302000E70004302100C606E1
:1024FE004A08083A031D8F2A200042083D00960024
:10250E00160803198C2A10308D2A04302100CA00B7
:10251E004C0BBE2A48302000E500E601210046089B
:10252E00023E8600870120006508C03F6608C13F55
:10253E006123903121005108023A031DAC2A46084E
:10254E00860084308701810008002000E708031D03
:10255E00B72A210046088600C8308701810008008E
:10256E002100460886008830870181000800BA1FC6
:10257E00C82A3D080319C62A3D08813101212100D0
:10258E00BA13CC0108003D000E122200C11BF52A21
:10259E002100BA1FDD2A0230CC002200B508031D2F
:1025AE00D92A20232200B701B6010800500A86005E
:1025BE000830870181004030F500F6015008023ED8
:1025CE0086007508C03F7608C13F500886008C30E3
:1025DE008100460886008430810008002000C01F5C
:1025EE00092B01302100CC002200B408031D012B61
:1025FE00202390312200B701B6012100C908031D26
:10260E000800402E02302100CC00500A860008300F
:10261E00870181004030F500F6015008023E860029
:10262E007508C03F7608C13F50088600843081008F
:10263E00012BB401B50121004C08023A031D3B2BBE
:10264E00500A86000830870181004830F300F401FB
:10265E005008023E86007308C03F7408C13F500800
:10266E008600C8308100080022004308200047027F
:10267E00031D452B220042082000460203184E2B54
:10268E0047082200C300200046082200C200612332
:10269E0090314830F300F40121004608023E8600D6
:1026AE0087017308C03F7408C13F46088600C830D2
:1026BE00810008000830F20000302200430208308A
:1026CE00031942020318772B4208F2002100D108A9
:1026DE00031D732B0130762B510B772B0230D1005B
:1026EE0022004308F10072084202F000031CF103BD
:1026FE00C2007108C3002100460A860087017208D5
:10270E00810048302200B900411C9C2BAE2B3908A9
:10271E00860087013F08840040088500000881007C
:10272E00BF0A0319C00AB90AF203F2080319080016
:10273E008E2B3908860087013F08840040088500EB
:10274E0000088100BF0A0319C00AB90AF203F20891
:10275E0003190800A02B4F0886008701413F200077
:10276E00E800E500E601660821003C02031DC32BCC
:10277E002000650821003B020318C82B3B082000EF
:10278E00E80021003C082000E600680821003B021A
:10279E002000E500031CE6032100BB0020006608B4
:1027AE002100BC002000E701680867020318EF2B28
:1027BE00210038088600870120006708483E840003
:1027CE008501000881002100B80A2000E70ADB2BF2
:1027DE000330B83E86008701160001040319192C38
:1027EE002100500A86000830870181004830200001
:1027FE00E500E60121005008023E86002000650833
:10280E00C03F6608C13F21004F0886005008011BDB
:10281E00142C8600C830810008008600883087019D
:10282E00810008002100500A8600083087018100CF
:10283E0040302000E500E60121005008023E8600EF
:10284E0020006508C03F6608C13F21005008860081
:10285E00843081003D080319382C3D088131012157
:10286E0090312100BA13C908031D0800402E200024
:10287E00420B522C40081F39031D522C2200C11747
:10288E0020004108033A031D502C01302200B200F3
:10289E00522C2200B20120004208031D08004008FD
:1028AE001F39023A031D080044080F3903190800A6
:1028BE0044080F39FA0002307A020318080021008A
:1028CE004A08203A031D08002200C1172000C41B2D
:1028DE007E2C44080F392C3E8600013087000108FB
:1028EE00D90044080F39C43E86008701892C44085C
:1028FE000F39C63E860087010108D90044080F39FA
:10290E00C23E86000108D80058188F2C5911902C01
:10291E005915C41B992C44080F392C3E86000130E2
:10292E0087009E2C44080F39C63E86008701590841
:10293E0081004108033A031DBB2C5908860087010C
:10294E00811FB52CC41BAF2C44080F39C43EB22CCA
:10295E0044080F39C23E860087018114590886004B
:10296E0084308701810408000430D9065908860096
:10297E0087015908811FD32C8600811386000530EC
:10298E000117D000D1015908D200D301D401D40AC5
:10299E00D501AB259031D62C860087010117043066
:1029AE002000D906D818E02C590886008701811F0F
:1029BE00FC2CC41BE62C44080F39C43EE92C4408F9
:1029CE000F39C23E860087018110590886003B30C0
:1029DE0081050530D000D1015908D200D301D401B0
:1029EE00D40AD501AB259031012D590886003B3014
:1029FE0087018105200044080F39983EFA000E30F9
:102A0E00FB01FB3D7A08D6007B08D70056088600EE
:102A1E0057088700011008004A03031D1F2D3D00B3
:102A2E008E1A1F2D90011214121602302100CA00A8
:102A3E003D001019121D262D1011F62690318E1CF8
:102A4E002B2D2000121108001018121C352DCD252B
:102A5E00903112150430CA003D001010101A121ECB
:102A6E003C2DE72690313D001012101F562D121FDF
:102A7E004B2D73302000D000D101D201D301D401EF
:102A8E00D40AD501AB2590313D00101321004B081F
:102A9E00031DCB03CB08031D562D402690313D0060
:102AAE00901A921E5C2DCF2690319018921C6D2D8F
:102ABE00FF302000D0007F30D100D201D301D401ED
:102ACE00D40AD501AB2590313D009301043021008D
:102ADE004A02031C282D3D00921D282D2000EF01D7
:102AEE003D00901D282D0F082100D200520C200011
:102AFE00EE00EE0C6E0C0F392100CE003D00901151
:102B0E00210052198D2D4E08C43E8F2D4E08C23E07
:102B1E008600013087018106CE08031D992D83267C
:102B2E009031A42D72302000D000D230D101D200CD
:102B3E00D301D401D501AB25903120000430EF0A2A
:102B4E006F020318282D772D5108003A0319BA2D5C
:102B5E007F3A0319C72DCC2D082F0A2F092F8E2F40
:102B6E008D2F0B2F072F5008FF3E031C08008400EB
:102B7E00753004020318080085310435043E8200C6
:102B8E005008FF3A0319B92DCC2D0800210012115F
:102B9E003D009301900198010E30F3009930F20040
:102BAE00F40172088600730887008101F20A031986
:102BBE00F30AF40A0319D82D163091009F309700AE
:102BCE007B309200F501750809070907203E860043
:102BDE0000308701C03FC13FC23FC33F0830F50AF6
:102BEE007502031CEA2D0E1796010E120E133D00F0
:102BFE00901D092E90112200C1012100BA01BB01C6
:102C0E00BC01FE2D01302200B600B700B401B501A3
:102C1E00B301F5017508C63E86008701810175086E
:102C2E002C3E86000130870081017508C23E860069
:102C3E00870181017508C43E860002308101F50AC4
:102C4E007502031C112E28302100C60016303D00DF
:102C5E0098004030F000F1012000A2007108A3009E
:102C6E000830A1008430A0002200C7012100CA0153
:102C7E0008002200B608031D08000130B600B70890
:102C8E00031D0800B70021004C08023A031D582E00
:102C9E00460A86008701810146088600C8308100F9
:102CAE0008004C0B0800C8014F0A86000830870147
:102CBE0081004030F000F1014F08023E860070089E
:102CCE00C03F7108C13F4F0886008430810001303B
:102CDE00C800500A8600083081004030F000F10133
:102CEE005008023E86007008C03F7108C13F500870
:102CFE0086008030810008002D30CB005208FD394F
:102D0E00031DC72E52363F3909070907203ECF0053
:102D1E00D0000430D0064F0886008701010C890CC4
:102D2E000F390D3A031DC62E2000ED016D08403EF1
:102D3E008600870121004F08023E840085010008AD
:102D4E008400000881004F08023E86000130810792
:102D5E0041310318810A20000830ED0A6D02031C70
:102D6E009D2E4030EB00EC0121004F08023E860004
:102D7E00870120006B08C03F6C08C13FDF28DD2FA4
:102D8E00FD3052052000EB00043A031D0800732AA3
:102D9E00181CE52E21004F08860087010108803A95
:102DAE00031DE32E460886000108843A031DE32E18
:102DBE004F0886008C3081003D00181090120800DC
:102DCE00121510128E1401302200B300753020003F
:102DDE00D000D101D201D301D401D501AB2D2200F7
:102DEE00B30174302000D0000030D101D201D301E4
:102DFE00D401D501AB253D008E1012111011080023
:102E0E0008000800080008000C2F40081F39013A7E
:102E1E00031D08004408031D08004108063A031963
:102E2E002D2F382F2200470B382F1B30BF00983024
:102E3E00C0000930282F4C302200BF009830C0004F
:102E4E001830C200C301C030C100382F4308213AE8
:102E5E000319192F033A0319222F013A0319382F98
:102E6E00382F2000400E890C0339013A031D08004B
:102E7E00662F742F7E2F4A302200BF000130C00013
:102E8E00C200C301C130C100080080302200C10061
:102E9E00200043082200CA00080049302200BF006B
:102EAE000130C000C200C3018130C1000800803073
:102EBE002200C100200042082200C900080041087B
:102ECE00FF3E031C080084000B30040203180800A8
:102EDE0080310435393E82000800B0302200BF0038
:102EEE00C0010830C200C3018130C1000800483063
:102EFE002100B800200047082100BC002000460831
:102F0E002100BB000130BD00BA17080008001E30BA
:102F1E00F400013095272200BE0A0800F900741D46
:102F2E009B2FF001B4279031F41CA12FF001F00A71
:102F3E007908B4277908983EF5000E30F601F63D73
:102F4E007508F7007608F8007408F5007708860013
:102F5E0078088700750881000800F2002030F30021
:102F6E007008F100F13572080907090771070907A2
:102F7E000907F3077308860087018113F008031D04
:102F8E00CE2F72082C3E860001308700D22F720899
:102F9E00C63E86008701730881007308860087018C
:102FAE0001137308043E8600011708004C08023A0C
:102FBE00031DE22FB22BCC01C808031DFE2F500AB1
:102FCE00860008308701810040302000E900EA01C8
:102FDE0021005008023E860020006908C03F6A08A2
:102FEE00C13F2100500886008C3081000800C801C6
:102FFE00080000348434983476349834323498345B
:10300E00093498340934023429340034013401343B
:10301E00003480343C340934043400340034013438
:10302E0003340034003400340934213401340134C3
:10303E00003401342234183400340734053481341A
:10304E0003340834003401340734053401340334B6
:10305E000834003401341A340334623400346C34CE
:10306E000034693400346E3400346B340034283448
:10307E0000343134003429340034203400346D34BB
:10308E0000346B3400343234003406340034FF34F0
:10309E0009340134A1340134153400342634FF349C
:1030AE0000347534083485340134953408340934C9
:1030BE000034B23402340134C034123401340034DA
:1030CE0002340034003400340834B8342734ED347C
:1030DE0001340234003401340234033401340E342A
:1030EE0003345434003468340034693400346E349C
:1030FE000034673400344D3400340434033409345E
:02310E00043487
:103F00000034FF3400343234003401340034FF34E0
:103F1000003432340034023400340034003432349B
:103F200000340034FF3400340034323400340134BF
:103F3000FF340034003432340034023400340034AE
:103F4000003432340034003400340034FF3432346E
:103F50000034013400340034FF343234003402348D
:103F6000003400340034323400340034FF34FF3481
:103F7000FF346434003400340034003400346434DA
:103F800000340034FF34FF34FF3432340034013461
:103F9000003400340034323400340134FF34FF3450
:103FA000FF343234003402340034003400346434DA
:103FB00000340234003400340034643400340234F9
:083FF00021344334BA34DC34FF
:020000040001F9
:04000E0084CFCFFFCD
:00000001FF
