:0400000080311A2809
:10000800803120007F08E60089315C218031911C15
:1000180017282200AC0A0319AD0A0319AE0A0319FE
:10002800AF0A200091106608FF00090080311C28E3
:10003800C8308400213085002830FE000230FF00DF
:100048008731EB278031E701E801E901EA01EB019B
:10005800EC01ED01EE01EF01D6308400003085009F
:100068001930FE000030FF008731EB278031210076
:10007800EF0120308400013085003D30FE00003063
:10008800FF008731EB278031A030840001308500E4
:100098003630FE000030FF008731EB278031220028
:1000A8002030ED0020005828963128268031B120D4
:1000B80080313030A0002330A100C030A201A3015C
:1000C800A400A501CA203030A0002330A100803050
:1000D800A2009F30A3006030A400A5019431AB2496
:1000E8008031E3208031FF302200EC001030EA003C
:1000F8009430E900E90B7E28EA0B7E2800002200F4
:100108006C0E0F39EB002100A40022006B082100BF
:10011800A500FF30A60022006B08E5208031A4204E
:1001280080312200EC03031D7A28052480315921EF
:100138008031A420803160219531A22580319F280B
:1001480036302100D200A030D3012C218031C730B5
:10015800D500D50BAD28B0280800E408031D080019
:100168003D008E019201163091009F3097007B3040
:100178009200210012150B178B173D008E19C62807
:100188008E15C12801302100E40008002108D400A0
:100198002008D3000130A4020030A53B240A03192B
:1001A800250A031908002208D200530886005408BB
:1001B800870052088100D30A0319D40ACE280E11E9
:1001C80008002100A7002608FF3A031D1429A801EA
:1001D800A9012100280828072807A13E8600013028
:1001E800870027088100280828072807A03E8600DE
:1001F80024088100280828072807A23E8600250829
:100208008100A80A0319A90A2908803AFF0080304A
:100218007F02031D11291230280203180800ED2857
:10022800260826072607A13E8600013087002708F2
:100238008100260826072607A03E8600240881009C
:10024800260826072607A23E860025088100080002
:10025800D4008B1301302100D2020030D33B520A64
:100268000319530A031957295408860001308700D7
:1002780001082000EA0021000830D40A2000E90023
:100288000E15EA0D03184D290E110000000000009C
:1002980052290000000000000E110000000000308C
:1002A800E90B44292E298B170800BF012100EA30E9
:1002B800EB01EA01EC01992A22002F08E8002E0838
:1002C800E7002D08E6002C08E50020086502E1009B
:1002D8002108663BE2002208673BE3002308683BED
:1002E800E4006408803AFF0080307F02031D8629FD
:1002F80000306302031D862900306202031D86292F
:1003080001306102031CB8290A30A0070130031824
:10031800A1070318A2070318A3079631FD26803109
:10032800A42080312200C208031DB229BF08031D82
:10033800B82900306802031DAB2900306702031D8D
:10034800AB2901306602031DAB29F5306502031C99
:10035800B8290230BF0005248031B8293F08023A85
:10036800031DB829592180312200330832040319AA
:10037800E22928086502E1002908663BE2002A080C
:10038800673BE3002B08683BE4006408803AFF0001
:1003980080307F02031DDA2900306302031DDA2949
:1003A80000306202031DDA2901306102031CE229D0
:1003B800B201B301BF01BF0A052480313F08031908
:1003C800080024086502E1002508663BE2002608CB
:1003D800673BE3002708683BE4006408803AFF00B5
:1003E80080307F02031D022A00306302031D022AA7
:1003F80000306202031D022A01306102031C08005A
:1004080040082100D2000630D301D400D501F023E2
:10041800803130302200E1002330E2002100520810
:10042800220061078600210053082200623D8700F0
:10043800403F2100EA00413FEB00423FEC00220030
:1004480040082100D2000630D301D400D501F023A2
:10045800803133302200E1002330E20021005208CD
:10046800220061078600210053082200623D8700B0
:10047800403FB400413FB50040082100D20006309B
:10048800D301D400D501F023803135302200E100BA
:100498002330E20021005208220061078600210073
:1004A80053082200623D87000108BC003508340467
:1004B800031D672A2100EB08031D672AEA080319B0
:1004C800EC080319732A22003508DE003408DD0021
:1004D8003C08DF00EA30E001953123258031220015
:1004E800C00A40086D06031D832A4108C000BE0BE0
:1004F8007F2ABF01832A3E08FF3A0319BE01350847
:100508002100D300220034082100D2000A30D40090
:10051800D501F02352082200A40721005308220025
:10052800A53D0030A63DA73D0800AB00AA0121303B
:10053800AD00C830AC002A08D2001430D301D40072
:10054800D501F02380315208AC075308AD3D2B0A82
:10055800860087010108D2006430D301D400D50198
:10056800F02380312C0886002D0887004E31520870
:10057800C03F5308C13F2B08860087010108D200FD
:100588006430D301D400D501F02380312C088600D3
:100598002D0887004C315208C03F5308C13F2B0833
:1005A800023E860087010108D2006430D301D400DE
:1005B800D501F02380312C0886002D0887005031A2
:1005C8005208C03F5308C13F2C0886002D088700F9
:1005D8004E312C0884002D0885000231403F803FB1
:1005E800413F813F2C0886002D0887004C312C089C
:1005F80084002D088500403F803F413F813F2C0803
:1006080086002D08870050312C0884002D088500AD
:100618000431403F803F413F813F2C0886002D0830
:10062800870052310030C03FC13F2B088600870148
:100638000108A4002B088600423FA5002A08A6004E
:100648002B0A86000108E520803121001230AA0A11
:100658002A02031808009B2AAA002130AC00C830DF
:10066800AB002708D3002608D2001430D400D501E7
:10067800F02380315208AB075308AC3D2A0A8600A4
:1006880087010108D2006430D301D400D501F023DA
:1006980080312B0886002C08870042315208C03F61
:1006A8005308C13F2A08860087010108D200643038
:1006B800D301D400D501F02380312B0886002C0803
:1006C80087005208C03F5308C13F2A08023E8600EF
:1006D80087010108D2006430D301D400D501F0238A
:1006E80080312B0886002C08870044315208C03F0F
:1006F8005308C13F2408013EA8000030253DA90049
:100708002B0886002C08870052312808C03F29088A
:10071800C13F2508D3002408D2002B0886002C08E6
:1007280087004E312B0884002C0885000231403F99
:100738000002D4000131413F003BD5009731C0276A
:1007480080312B0886002C08870048315208C03FAA
:100758005308C13F2508D3002408D2002B0886007F
:100768002C0887004C312B0884002C088500403F5A
:100778000002D4000131413F003BD5009731C0272A
:1007880080312B0886002C08870046315208C03F6C
:100798005308C13F2508D3002408D2002B0886003F
:1007A8002C08870050312B0884002C088500043160
:1007B800403F0002D4000131413F003BD500973152
:1007C800C02780312B0886002C0887004A31520840
:1007D800C03F5308C13F0800A001A101521CF82BDB
:1007E8005408A0075508A13DD435D50DD336D20CF1
:1007F80053085204031DF22B2108D3002008D2000D
:1008080008004108C0002F08A7002E08A6002D08E0
:10081800A5002C08A40008008931FD298931FE298A
:100828008931FF298A31132A8A31132A8A31132AF6
:100838008A31132A8A31132A8A31132A8A31132AD0
:100848008A31132A8A31132A8A31132A8A31132AC0
:100858008A31132A8A31132A8A31132A8A31132AB0
:100868008A31132A8A31132A8A31132A8A31132AA0
:100878008A31132A8A31132A8A31132A8A31132A90
:100888008A31132A8A31132A8A31132A8A31132A80
:100898008A31132A8A31132A8A31132A8A31132A70
:1008A8008A31132A8A31132A8A31132A8A31132A60
:1008B8008A31132A8A31132A8A31132A8A31132A50
:1008C8008A31132A8A31132A8A31132A8A31132A40
:1008D8008A31132A8A31132A8A31132A8A31132A30
:1008E8008A31132A8A31132A8A31132A8A31132A20
:1008F8008A31132A8A31132A8A31132A8A31132A10
:100908008A31132A8A31132A8A31132A8A31132AFF
:100918008A31132A8A31132A8A31132A8A31132AEF
:100928008A31132A8A31132A8A31132A8A31132ADF
:100938008A31132A8A31132A8A31132A8A31132ACF
:100948008A31132A8A31132A8A31132A8A31132ABF
:100958008A31132A8A31132A8A31132A8A31132AAF
:100968008A31132A8A31132A8A31132A8A31132A9F
:100978008A31132A8A31132A8A31132A8A31132A8F
:100988008A31132A8A31132A8A31132A8A31132A7F
:100998008A31132A8A31132A8A31132A8A31132A6F
:1009A8008A31132A8A31132A8A31132A8A31132A5F
:1009B8008A31132A8A31132A8A31132A8A31132A4F
:1009C8008A31132A8A31132A8A31132A8A31132A3F
:1009D8008A31132A8A31132A8A31132A8A31132A2F
:0C09E8008931FA298931FC298931FB2969
:100A0000002D85318207032D8C31032C2000400EF0
:100A1000890C0339031D0800410884000D300402CD
:100A20000318080090310435003E82000800ED17DD
:100A300008302100E4000800B02D3F2DEF30EB001E
:100A40000030EC006D140130EE00ED170800212E8F
:100A500088318C284408ED3EEB00EC01222DED1787
:100A60004408ED3E860087014208810008000230FC
:100A7000D000D101D201D301D4018931F229200063
:100A8000ED170E30FB009930FA00FC017A08860061
:100A90007B0887008101FA0A0319FB0AFC0A031983
:100AA000462D2030F000F101F201F301F400F501D0
:100AB000972585313D000E17FD017D08DC3E86003F
:100AC000870181017D08DE3E860002308101FD0A3A
:100AD0007D02031C5D2DED30F0000030F100F201CD
:100AE000F301F401F40AF501972585313D000E1359
:100AF00028302100E00020302000E700E800420814
:100B00002100EF00EF08031D882D1030E4000800DD
:100B10002000EF30D001D00AD101D200D301D30A96
:100B2000D4018931F22120302100E400080071084D
:100B3000F8007008F7000130F4020030F53B740A49
:100B40000319750A031908007208F6007708860071
:100B50007808870076088100F70A0319F80A9B2DA8
:100B600020004008803A031D0800C030ED00152E1B
:100B70006430EB009830EC001230EE00EF0108001A
:100B80004208F0000730F101F035F10D70078400E4
:100B90009830713D8500003FEB00013FEC006C0890
:100BA000F1006B08F000023E840071080318710A1E
:100BB00085000008EE006C08F1006B08F000033EB1
:100BC000840071080318710A85000008EF0008000E
:100BD0000330420203180F2E4208F0000130F101E9
:100BE000F035F10D700784009830713D8500003FAD
:100BF000EB00013F062E12302200C3000330C40078
:100C000081302000ED004330EB000130EC006B0838
:100C100084006C0885000008EE00EF01080042081F
:100C2000033A0319FB2DED0108004308013A0319AB
:100C3000B82D033A0319C02D013A0319E82D132EDC
:100C400008002000C801C9014B2EED1748142200EE
:100C5000360B562E2000C814562EED17562EED17C3
:100C6000C41B392E44080F39303E860001308700FE
:100C70003E2E44080F39E03E860087010108F0004F
:100C800086008701811F562E70088600011D562E92
:100C90000130C800562E40081F390319252E013A8D
:100CA00003192D2E033A03192F2E562E2000ED1F67
:100CB00008004830EB00EC016D140230EE00080033
:100CC00021006008860000308701011B01302000F0
:100CD000DD0004302100E0066408083A031D7C2E84
:100CE000200042083D00960016080319792E1030A6
:100CF0007A2E04302100E400660BAB2E4830200031
:100D0000DB00DC0121006008023E86008701200034
:100D10005B08C03F5C08C13F4C2786312100690851
:100D2000023A031D992E60088600843087018100F5
:100D300008002000DD08031DA42E210060088600A5
:100D4000C8308701810008002100600886008830D3
:100D5000870181000800D81FB52E5B080319B32E48
:100D60005B08853101252100D813E60108003D000C
:100D70000E122000ED1BE42E2100D81FCA2E0230D7
:100D8000E6002200B908031DC62E10272200BB0171
:100D9000BA0108002000680A860008308701810037
:100DA0004030F500F6016808023E86007508C03F35
:100DB0007608C13F680886008C30810021006008F9
:100DC0008600843081000800C01FF82E0130210009
:100DD000E6002200B808031DEF2E102786312200FE
:100DE000BB01BA012100E308031D08008A314B2A28
:100DF00002302100E6002000680A860008308701E2
:100E000081004030F500F6016808023E8600750852
:100E1000C03F7608C13F6808860084308100EF2E0D
:100E2000B801B90121006608023A031D2C2F2000E9
:100E3000680A86000830870181004830F300F40119
:100E40006808023E86007308C03F7408C13F680806
:100E50008600C8308100080020006F084702031D8B
:100E6000332F6E0846020318392F4708EF00460853
:100E7000EE004C2786314830F300F4012100600871
:100E8000023E860087017308C03F7408C13F6008B6
:100E90008600C830810008000830F20000306F0280
:100EA000083003196E020318612F6E08F20021004A
:100EB000E908031D5D2F0130602F690B612F02309F
:100EC000E90020006F08F10072086E02F000031CB8
:100ED000F103EE007108EF002100600A860087012F
:100EE0007208810048302200BD0020006D1C8A2F4E
:100EF0009F2F22003D088600870120006B08840098
:100F00006C08850000088100EB0A0319EC0A220036
:100F1000BD0AF203F20803190800792F22003D08E8
:100F20008600870120006B0884006C08850000089B
:100F30008100EB0A0319EC0A2200BD0AF203F20851
:100F4000031908008E2FF900741DA92FF001C22784
:100F50008731F41CAF2FF001F00A7908C227790815
:100F6000983EF5000E30F601F63D7508F70076085C
:100F7000F8007408F500770886007808870075087F
:100F800081000800F2002030F3007008F100F13514
:100F9000720809070907710709070907F3077308AA
:100FA000860087018113F008031DDC2F7208303E94
:100FB000860001308700E02F7208E03E860087013E
:100FC0007308810073088600870101137308043ECB
:100FD0008600011708006400800101310130FE0223
:0E0FE0000030FF3B7F087E0403190034EC2F25
:101012002000670886008701413FDE00DB00DC011B
:101022005C0821005A02031D1A2820005B082100D7
:10103200590203181F2859082000DE0021005A080F
:101042002000DC005E08210059022000DB00031CA6
:10105200DC032100D90020005C082100DA00200016
:10106200DD015E085D02031846282100560886004D
:10107200870120005D08483E840085010008810048
:101082002100D60A2000DD0A32280330D63E86002F
:1010920087011600010403196B28680A86000830CC
:1010A200870181004830DB00DC016808023E8600CF
:1010B2005B08C03F5C08C13F670886006808011BE7
:1010C20066288600C83081000800860088308701C3
:1010D20081000800680A86000830870181004030DC
:1010E200DB00DC016808023E86005B08C03F5C084A
:1010F200C13F680886008430810021005B08031923
:1011020086285B088531012588312100D813E30840
:10111200031D08004B2A2000420B9E2840081F395D
:10112200031D9E28ED174108033A031D9C28013038
:101132002200B6009E282200B60120004208031DAC
:10114200080040081F39023A031D080044080F39FD
:101152000319080044080F39FA0002307A02031812
:10116200080021006408203A031D08002000ED1742
:10117200C41BC92844080F39303E8600013087005D
:101182000108D80044080F39DE3E86008701D428C2
:1011920044080F39E03E860087010108D800440860
:1011A2000F39DC3E86000108D7005718DA2858119B
:1011B200DB285815C41BE42844080F39303E86004A
:1011C20001308700E92844080F39E03E8600870194
:1011D200580881004108033A031D06295808860071
:1011E2008701811F0029C41BFA2844080F39DE3EFB
:1011F200FD2844080F39DC3E860087018114580817
:10120200860084308701810408000430D80658081B
:10121200860087015808811F1D29860081138600D8
:1012220005300117D000D1015808D200D301D30AEA
:10123200D401F22188312029860087010117043068
:101242002000D806D7182A29580886008701811F4E
:101252004529C41B302944080F39DE3E332944088E
:101262000F39DC3E860087018110580886003B302A
:1012720081050530D000D1015808D200D301D30A2C
:10128200D401F22188314A29580886003B3087016F
:101292008105200044080F39983EFA000E30FB0108
:1012A200FB3D7A08D5007B08D60055088600560813
:1012B20087000110080021006403031D69293D0015
:1012C2008E1A692990011214121602302100E400CC
:1012D2003D001019121D70291011142288318E1C24
:1012E20075292000121108001018121C7F29DB2218
:1012F200883112150430E4003D001010101A121E3D
:101302008629232288313D001012101F9F29121FA7
:10131200942973302000D000D101D201D301D30A25
:10132200D401F22188313D00101321006508031D0C
:10133200E503E508031D9F294B2288313D00901AE1
:10134200921EA529312288319018921CB529FF30AE
:101352002000D0007F30D100D201D301D30AD401C2
:10136200F22188313D009301043021006402031C04
:1013720072293D00921D72292000E5013D00901D59
:1013820072290F082100EE006E0C2000E400E40C2C
:10139200640C0F392100E8003D00901121006E1904
:1013A200D5296808DE3ED7296808DC3E8600013070
:1013B20087018106E808031DE12991228831EB2982
:1013C20072302000D000EE30D101D200D301D4011E
:1013D200F221883120000430E50A650203187229DF
:1013E200BF295108003A0319012A7F3A03190E2A2C
:1013F200132A4F2B4D2B4E2BCF2BCE2B512B502B59
:101402005008FF3E031C08008400753004020318D4
:10141200080084310435103E82005008FF3A031957
:10142200002A132A08002200B70174302000D000DD
:10143200D101D201D301D401F2213D008E1012114B
:1014420010110800121510128E1401302200B7007C
:1014520075302000D000D101D201D301D401F2298C
:10146200181C492A20006708860087010108803A73
:10147200031D472A2100600886000108843A031DE3
:10148200472A2000670886008C3081003D00181032
:10149200901208002200BA08031D08000130BA00A9
:1014A200BB08031D0800BB0021006608023A031DA9
:1014B200632A600A86008701810160088600C830BD
:1014C20081000800660B0800E2012000670A86001E
:1014D2000830870181004030F000F1016708023EC8
:1014E20086007008C03F7108C13F670886008430DB
:1014F200810001302100E2002000680A86000830E5
:1015020081004030F000F1016808023E8600700858
:10151200C03F7108C13F6808860080308100080022
:101522002D30E5006E08FD39031DD22A6E363F3993
:1015320009070907203E2000E700E8000430E8061A
:10154200670886008701010C890C0F390D3A031DCB
:10155200D02AE3016308403E860087016708023E05
:101562008400850100088400000881006708023EAB
:1015720086000130810741310318810A0830E30AED
:101582006302031CAB2A4030E100E2016708023E1D
:10159200860087016108C03F6208C13FD72B9431A2
:1015A200892CFD306E052000E100043A031D08007D
:1015B2008631602E210012113D00930190019801A5
:1015C2000E30F3009930F200F401720886007308BD
:1015D20087008101F20A0319F30AF40A0319E62AC1
:1015E200163091009F3097007B309200F50175080C
:1015F20009070907203E860000308701C03FC13F2E
:10160200C23FC33F0830F50A7502031CF82A0E17C1
:1016120096010E120E133D00901D172B9011200003
:10162200ED012100D801D901DA010C2B0130220091
:10163200BA00BB00B801B901B701F5017508E03E77
:101642008600870181017508303E860001308700DF
:1016520081017508DC3E8600870181017508DE3E46
:10166200860002308101F50A7502031C1F2B283007
:101672002100E00016303D0098004030F000F101FA
:101682002000A2007108A3000830A1008430A0004D
:101692002100EF01E401080008000800080008002A
:1016A200522B40081F39013A031D08004408031D4C
:1016B20008004108063A0319732B7E2B21006F0B99
:1016C2007E2B1B302000EB009830EC0009306E2B93
:1016D2004C30EB009830EC001830EE00EF01C030D7
:1016E200ED007E2B4308213A03195F2B033A0319BD
:1016F200692B013A03197E2B7E2B2000400E890CA8
:101702000339013A031D0800A82BB62BBF2B5C300E
:10171200EB000130EC000130EE00EF01C130ED00D2
:1017220008008030ED0043082200DC0008005B3036
:10173200EB000130EC000130EE00EF018130ED00F2
:1017420008008030ED0042082200DB00080041085A
:10175200FF3E031C080084000B300402031808003B
:10176200903104351A3E82000800B030EB00EC01E3
:101772000830EE00EF018130ED0008004830210012
:10178200D600200047082100DA0020004608210088
:10179200D9000130DB00D817080008001E30F40021
:1017A20001308731A3272200C20A08002100E90183
:1017B200E3012200B801B9012100E201E60160085B
:1017C2008600043087018113E00660088600043039
:1017D2008113E0062000680886008113ED01EE0106
:1017E200EF012100D801D901DA01853106258831BE
:1017F20003302000D000D101D201D301D401F22163
:101802008631B72E4830052CD100B030F600F701F2
:101812005108F8000830F901FA00FB019431CF2495
:101822008C312100510886008701413FCD005108CB
:101832008600423FCF0051088600433FCE00510848
:101842008600443FD0004D08633A031D4A2C5108DC
:10185200063E86005108053E840085010008B90055
:101862000108B80051088600473FBA002200BF01B4
:10187200210039082000D400210038082000D300BC
:1018820021003A082000D500CE30D6019431F4244C
:1018920008004D086E3A031D732C5108860087011B
:1018A200473FC3002200BF01210043080319672CF0
:1018B20003302200BF0021004E08F0005008F10062
:1018C2004308F2004F0895315D2508002000CE3014
:1018D200D301D401D501D6019431F4248C31CE3018
:1018E200312608004D08723A031D9B2C51088600D0
:1018F2008701473FCC004C08031DCC034C084C0722
:101902004C07A13E8600013087000108B2004C0856
:101912004C074C07A03E86000108B3004C084C0758
:101922004C07A23E86000108B400B501B6014C087E
:10193200B70008004D08703A031DC52C51088600F7
:101942008701423F2200BF00210051088600433F29
:101952002200C100210051088600443F2200ED0010
:10196200210051088600453F2200BE006D08031980
:10197200BE2C21306D02031CC12C2030ED00C22C84
:10198200ED0A94317E2408004D08533A031DE02CE1
:1019920022003F082100B200220041082100B300CA
:1019A20022006D082100B40022003E082100B5008B
:1019B200220040082100B6000030B70108004D089F
:1019C200503A031D2A2D510886008701423F22000A
:1019D200D600210051088600433F2200D500210095
:1019E20051088600443F2200D70021005108063EDC
:1019F20086005108053E8400850100082200D900B6
:101A02000108D800210051088600473FC400203059
:101A120044020318C4013030F6002330F7004408B2
:101A2200F0000630F101F200F3018A27700820006D
:101A3200D9007108DA005908F6075A08F73D5530FF
:101A4200F8000130F9000630FA00FB019431CF248E
:101A520008004D08523A031D6B2D5108860087017C
:101A6200473FC500203045020318C5014508F00074
:101A72000630F101F200F3018A278C313030200068
:101A8200D9002330DA0070085907860071085A3DE0
:101A92008700C6308400003085000630FF00160043
:101AA2001A00FF0B502D21004708B2004608B30070
:101AB2004808B4000330C63E86008701403F20003C
:101AC200D900413FDA00D900DA012100B500490806
:101AD200B60008004D08573A031D8F2D5108023EEB
:101AE200860087010108BE3A031D08005108033E23
:101AF20086000108EF3A031D08005108043E8600E3
:101B02000108CA3A031D08005108053E8600010873
:101B1200FE3A031D0800E701E70A08004D08443AAF
:101B2200031DE92D510886008701423FBB00510881
:101B3200043E86005108033E840085010008BE0071
:101B42000108BD0051088600453FBC0051088600CF
:101B5200463F2200C100210051088600473F220073
:101B6200ED006D080319B92D21306D02031CBB2D48
:101B72002030ED0021003B080319E02D3E08220031
:101B8200B30021003D082200B20021003E08F1000E
:101B92003D08F0000A30F200F3018A278C31700808
:101BA2002200A8007108A900AA01AB012C08A8070D
:101BB2002D08A93D2E08AA3D2F08AB3DE32D22009A
:101BC200B201B3012100BC08031D0800F727080079
:101BD2004D08763A031DF22D3230B3003330B40093
:101BE20008004D08213A031D08000530F00080303E
:101BF200F100DF278C3171082100C0007008BF009E
:101C02000630F0008030F100DF278C3171082100AE
:101C1200C2007008C1005530B100AA30B2002200E3
:101C220042082100B30040082000DA0021003F08EA
:101C32002000D9005A08D900DA012100B4003F0877
:101C4200B50042082000DA00210041082000D90036
:101C52005A08D900DA012100B6004108B70008008D
:101C6200F700F6012130F900C830F8007608F000DC
:101C72001430F101F200F3018A278C317008F80761
:101C82007108F93D770A860087010108F000643087
:101C9200F101F200F3018A278C3178088600790875
:101CA20087004E317008C03F7108C13F7708860037
:101CB20087010108F0006430F101F200F3018A2784
:101CC2008C3178088600790887004C317008C03F53
:101CD2007108C13F7708023E860087010108F000C3
:101CE2006430F101F200F3018A278C317808860012
:101CF2007908870050317008C03F7108C13F7808E9
:101D02008600790887004E317808840079088500BA
:101D12000231403F803F413F813F78088600790889
:101D220087004C317808840079088500403F803F65
:101D3200413F813F78088600790887005031780852
:101D42008400790885000431403F803F413F813F54
:101D5200780886007908870052310030C03FC13FC1
:101D62007708860087010108F00077088600423F65
:101D7200F1007608F200770A8600010895315D25A8
:101D82008C311230F60A7602031808002100332E35
:101D9200D0002130D200C830D1007B08F1007A088F
:101DA200F0001430F200F3018A278C317008200011
:101DB200D1077108D23D500A860087010108F00060
:101DC2006430F101F200F3018A278C3120005108BE
:101DD20086005208870042317008C03F7108C13F37
:101DE2005008860087010108F0006430F101F2001A
:101DF200F3018A278C31200051088600520887009F
:101E02007008C03F7108C13F5008023E860087013A
:101E12000108F0006430F101F200F3018A278C31ED
:101E22002000510886005208870044317008C03FE4
:101E32007108C13F7808013EFC000030793DFD0089
:101E4200510886005208870052317C08C03F7D0845
:101E5200C13F7908F1007808F00051088600520865
:101E620087004E3151088400520885000231403FFC
:101E72000002F2000131413F003BF3009F278C3109
:101E8200510886005208870048317008C03F710827
:101E9200C13F7908F1007808F00051088600520825
:101EA20087004C315108840052088500403F0002EF
:101EB200F2000131413F003BF3009F278C31510872
:101EC20086005208870046317008C03F7108C13F42
:101ED2007908F1007808F00051088600520887005E
:101EE200503151088400520885000431403F0002FD
:101EF200F2000131413F003BF3009F278C31510832
:101F02008600520887004A317008C03F7108C13FFD
:101F12000800F401F501701C922F7208F40773088F
:101F2200F53DF235F30DF136F00C71087004031D26
:101F32008C2F7508F1007408F0000800F501F11FFC
:101F4200A92FF009F109F00A0319F10AF501F50ABE
:101F5200F31FB22FF209F309F20A0319F30A01304F
:101F6200F506F601F701710870040319D22FF40186
:101F7200F40AF11BBF2FF035F10DB92FF635F70D2D
:101F820071087302031DC72F70087202031CCE2F43
:101F92007008F2027108F33B7614F136F00CF40B80
:101FA200BF2F75080319DA2FF609F709F60A031984
:101FB200F70A7708F1007608F0000800700823009D
:101FC2009100920115178B131514000000008B1756
:101FD20023001308F000F1011408F200F301F300EA
:101FE200F2017208F0047308F10408002200BF0134
:101FF2002100EA30EB01EA01EC01312608008531CB
:10200200272D8531282D8531162D8531282D8531B5
:10201200162D8531172D85311C2D8531372D8531B2
:102022001E2D85311D2D85312A2D85312F2D85318E
:10203200162D8B31862B8B31882B8B31982B8B3144
:10204200B52B8B31B52B8B31B52B8B31B52B8B311E
:0E205200B52B8B31872B8B31922B8B31A22B30
:1028FC004108C0002F08A7002E08A6002D08A5002F
:10290C002C08A400080021006608023A031D902C34
:10291C0088310928E601E208031DA92C2000680A69
:10292C0086000830870181004030DF00E001680834
:10293C00023E86005F08C03F6008C13F6808860001
:10294C008C3081000800E20108002308A90022084D
:10295C00A8002108A7002008A6000130A40200301E
:10296C00A53B240A0319250A03190800280884002A
:10297C00290885000008D200260886002708870051
:10298C0052088100A80A0319A90AA60A0319A70A62
:10299C00B32C79082000D3007808D2007708D10036
:1029AC007608D0000130FA020030FB3B7A0A03199A
:1029BC007B0A03190800520884005308850000089C
:1029CC00FC0050088600510887007C088100D20A60
:1029DC000319D30AD00A0319D10AD82CD7005608E8
:1029EC00803AFF0080307F02031DFE2C013055021F
:1029FC00031C102D20005408F9005308F80055084A
:102A0C00FF3EFA00FF30563DFB0057088E31C926B9
:102A1C00210008002000D8015408F9005308F800E0
:102A2C005808FA00FB0157088E31C9269431123030
:102A3C00D80A580203180800122D2100AD002200FC
:102A4C006008803AFF0080307F02031D2F2D01307B
:102A5C005F02031C462D22005E082100A500220007
:102A6C005D082100A40022005F08FF3E2100A600A3
:102A7C00FF302200603D2100A7002D088331302B50
:102A8C002100AE0122005E082100A50022005D0895
:102A9C002100A4002E08A600A7012D0883313023A5
:102AAC0095311230AE0A2E0203180800482DF3009F
:102ABC007208FF3A031D8A2DF401F501740874079E
:102ACC007407A13E860001308700730881007408EA
:102ADC0074077407A03E86007008810074087407A0
:102AEC007407A23E860071088100F40A0319F50AE6
:102AFC007508803AFF0080307F02031D872D12304D
:102B0C00740203180800642D720872077207A13E44
:102B1C008600013087007308810072087207720703
:102B2C00A03E860070088100720872077207A23EF0
:102B3C00860071088100080021006708031908004D
:102B4C00E7018B131908C339343899008030D2004F
:102B5C009F30D3003030D4002330D500D0259531B0
:102B6C00A0302100D2009F30D3005030D40023304D
:102B7C00D500D0259531C0302100D2009F30D30034
:102B8C007030D4002330D500D0253C30210099047E
:102B9C008B17080023001513210052082300910005
:102BAC002100530823009200151615155530960078
:102BBC00AA3096009514000000002300151115137F
:102BCC002100520823009100210053082300920099
:102BDC001512951615152100A20123009401210050
:102BEC002208A000A101540786002108553D87004A
:102BFC0001082300930055309600AA3096009514D6
:102C0C00000000002300910A0319920A21001F30D2
:102C1C00A20A2202031CF32D230094012100540864
:102C2C008600550887005F31010823009300951238
:102C3C0055309600AA309600951400000000230031
:102C4C001511080023008C018E0121008C018E01CE
:102C5C009801FC309900903027009B0020001C0844
:102C6C00FC3901389C001C08873958389C00F2301C
:102C7C009B001C15210091140B17A4012408F83E8D
:102C8C0084009F300318013E85000008A200220E2C
:102C9C000F3979269631A000220879269631A100A9
:102CAC002435A3002008D300D4012335453E8600EB
:102CBC00013087005308C03F5408C13F2108D3009E
:102CCC00D4012335473E8600013087005308C03FAE
:102CDC005408C13FA40A04302402031C442E772E4E
:102CEC00442E8B17852ED2000F30D2050A3052029B
:102CFC0052080318832E303E0800373E080012118C
:102D0C003D009301900198010E302100A1009930F3
:102D1C00A000A20120088600210887008101A00ADA
:102D2C000319A10AA20A0319902E16303D00910036
:102D3C009F3097007B3092002100A30123080907E4
:102D4C000907203E860000308701C03FC13FC23FCB
:102D5C00C33F0830A30A2302031CA42E3D000E1708
:102D6C0096010E120E133D00901DC42E90112000E2
:102D7C00ED012100D801D901DA01B92E0130220070
:102D8C00BA00BB00B801B901B7012100A3012308A7
:102D9C00E03E8600870181012308303E8600013029
:102DAC00870081012308DC3E86008701810123080E
:102DBC00DE3E860002308101A30A2302031CCD2EC5
:102DCC002830E00016303D00980040302100D20041
:102DDC00D3012000A200210053082000A3000830DA
:102DEC00A1008430A0002100EF01E40108002100C3
:102DFC00AA012130AC00C830AB002A08D200143034
:102E0C00D301D400D5018331F02396315208AB079E
:102E1C005308AC3D2B0886002C0887005231160055
:102E2C0001040319B92F2B0886002C088700523196
:102E3C00FF3081074131813D7F312B0886002C0802
:102E4C00870052311600010403195D2F2B088600F0
:102E5C002C08870048312B0884002C0885000E3183
:102E6C00403F80070131413F803D3F312B088600B8
:102E7C002C08870046312B0884002C0885000C3167
:102E8C00403F80070131413F803D3F312B08860098
:102E9C002C0887004A312B0884002C08850010313F
:102EAC00403F80070131413F803D3F31862F2B0849
:102EBC0086002C08870042312B0884002C088500E2
:102ECC000E31403F803F413F813F2B0886002C084C
:102EDC0087002B0884002C0885000C31403F803F74
:102EEC00413F813F2B0886002C08870044312B087A
:102EFC0084002C0885001031403F803F413F813FCA
:102F0C006430D200D3012B0886002C0887004C318A
:102F1C00403FD400413FD500C02796315208A40051
:102F2C006430D200D3012B0886002C088700503166
:102F3C00403FD400413FD500C02796315208A50030
:102F4C002A08A6006430D200D3012B0886002C0876
:102F5C0087004E31403FD400413FD500C027520876
:102F6C008031E520963121001230AA0A2A0203187A
:102F7C000800FF2EA101D31FCA2FD209D309D20AF0
:102F8C000319D30AA101A10AD51FD32FD409D5093E
:102F9C00D40A0319D50A0130A106A201A3015308D2
:102FAC0052040319F32FA001A00AD31BE02FD23532
:102FBC00D30DDA2FA235A30D53085502031DE82FAC
:102FCC0052085402031CEF2F5208D4025308D53B6D
:102FDC002214D336D20CA00BE02F21080319FB2F9F
:102FEC00A209A309A20A0319A30A2308D3002208E1
:102FFC00D200080000348434983476349834323457
:10300C0098340934983409340234293400340134A6
:10301C000134003480343C3409340434003400343A
:10302C0001340334003400340034093421340134C5
:10303C00013400340134223418340034073405349C
:10304C00813403340834003401340734053401343A
:10305C0003340834003401341A3403346234003439
:10306C006C340034693400346E3400346B34003406
:10307C002834003431340034293400342034003402
:10308C006D3400346B340034323400340634003484
:10309C00FF3409340134A13401341534003426349E
:1030AC00FF340034753408348534013495340834D5
:1030BC0009340034B23402340134C03412340134D3
:1030CC00003402340034003400340834B83427346B
:1030DC00ED3401340234003401340234033401344D
:1030EC000E340334543400346834003469340034FE
:1030FC006E340034673400344D34003404340334FB
:04310C00093404344A
:103F00000034FF3400343234003401340034FF34E0
:103F1000003432340034023400340034003432349B
:103F200000340034FF3400340034323400340134BF
:103F3000FF340034003432340034023400340034AE
:103F4000003432340034003400340034FF3432346E
:103F50000034013400340034FF343234003402348D
:103F6000003400340034323400340034803480347F
:103F70008034643400340034003400340034643459
:103F800000340034FF34FF34FF3432340034013461
:103F9000003400340034323400340134FF34FF3450
:103FA000FF343234003402340034003400346434DA
:103FB00000340234003400340034643400340034FB
:083FF00021344334BA34DD34FE
:020000040001F9
:04000E0084CFCFFFCD
:00000001FF
